{"contract/plonk_vk.sol":{"TurboVerifier":{"abi":[{"inputs":[{"internalType":"bytes","name":"","type":"bytes"}],"name":"verify","outputs":[{"internalType":"bool","name":"result","type":"bool"}],"stateMutability":"view","type":"function"}],"evm":{"bytecode":{"linkReferences":{},"object":"608060405234801561001057600080fd5b50613a03806100206000396000f3fe608060405234801561001057600080fd5b506004361061002b5760003560e01c80638e760afe14610030575b600080fd5b61004361003e366004613902565b610057565b604051901515815260200160405180910390f35b6000806100626102e8565b60208101519091506000610076828461090e565b6040805160208101909152600081529091508351602085015161009a918391610cf3565b61012160405180610220016040528060008152602001600081526020016000815260200160008152602001600081526020016000815260200160008152602001600081526020016000815260200160008152602001600081526020016000815260200160008152602001600081526020016000815260200160008152602001600081525090565b60208501516101339083908390610d4b565b608083015182516040805191825260208084015181840152925190820152606090207f30644e72e131a029b85045b68181585d2833e84879b9709143e1f593f0000001810691830182905290825282526101af818460a001518560c001518660e0015187610100015187610dd09095949392919063ffffffff16565b6000806101bd858885610e4f565b6103808701829052602089015191935091506101dc9085908590610eda565b6103008501516103208601518551604080519182526020808501518184015293519082015291810151606083015251608082015260a0908190207f30644e72e131a029b85045b68181585d2833e84879b9709143e1f593f0000001810691850191909152845260208301518352600061025784838a89611029565b90506000610267858a848a6111b7565b9050600061027588876116e0565b90506102848282888b8e61189a565b9a508a6102d85760405162461bcd60e51b815260206004820152600c60248201527f50726f6f66206661696c6564000000000000000000000000000000000000000060448201526064015b60405180910390fd5b5050505050505050505092915050565b6102f0613457565b6102f8613457565b60106000820152600260208201527f21082ca216cbbf4e1c6e4f4594dd508c996dfbe1174efb98b11509c6e306460b60408201527f2d5e098bb31e86271ccb415b196942d755b0a9c3f21dd9882fa3d63ab100000160608201527f02e40daf409556c02bfc85eb303402b774954d30aeb0337eb85a71e6373428de60808201527f127ff3a3561783a1a12805e9c397f725eb4531bd5ea221e903bb207fd5545c8f60a0820151527f0ab891f8c4d311ae55edcce2e9659aa7d5415c44f3c0137841987c576b53a1e9602060a083015101527f1f0f9d51575e2fa791e3df91b40e540faf059a40e2686127284d7dae2f895d2460c0820151527f1cec6d89c93e47ad897c01eecf6e48b71c5f69ee42a6248e7a7fec92b7e834dc602060c083015101527e43486fbaec600b8c1eae886922ec87a0e63e538b1175285c8776fedd19083260e0820151527f0cc5eb162f0eb38e66e4ae1c897b867f64e4485b90545b1cda7546af25415872602060e083015101527f2950076760523510abcfe90fa550b964e84b338f73af5222cdbbaefdacd4484e610100820151527f2e4e3e272c7b78ad894559812d7766e05615a8f7050a43d7ed1367adf30a9319602061010083015101527f2950076760523510abcfe90fa550b964e84b338f73af5222cdbbaefdacd4484e610120820151527f2e4e3e272c7b78ad894559812d7766e05615a8f7050a43d7ed1367adf30a9319602061012083015101527f09553fb1dd8a17ef4b194224d94cb748f73794a8f4ca87e981ed21a536449c3e610140820151527f2065b2da0647e6320585b9a74542668a12a624e44c0cb653a6dbb82bf97c4eff602061014083015101527f070abaf9febd22be049b3cdba8a02f8677e4d50300bd399475c29e556ef6d7cc610160820151527f0739adaa2458d713f714568d2ca6afb3d9490fae9c396e143414a12fa0f6b460602061016083015101527f23df70a8e85c3ea1ffa0f8f0a644f3642c55a391c37f69a335085bbd4437e3dd610180820151527f05403f9aa5d2b1bf6c068fa33f26705b45224705df78bf4006394b05d41ba93b602061018083015101527f2950076760523510abcfe90fa550b964e84b338f73af5222cdbbaefdacd4484e6101a0820151527f2e4e3e272c7b78ad894559812d7766e05615a8f7050a43d7ed1367adf30a931960206101a083015101527f2950076760523510abcfe90fa550b964e84b338f73af5222cdbbaefdacd4484e6101c0820151527f2e4e3e272c7b78ad894559812d7766e05615a8f7050a43d7ed1367adf30a931960206101c083015101527f2950076760523510abcfe90fa550b964e84b338f73af5222cdbbaefdacd4484e6101e0820151527f2e4e3e272c7b78ad894559812d7766e05615a8f7050a43d7ed1367adf30a931960206101e083015101527f0b2607d29f785b1a42b1c29adece19dbf6e72ebbfcede9ddda3b25041e152c3b610200820151527f0b9d784c59475a188d074bcba14a53c6467d30bef14989d4d525ec77642aa6dd602061020083015101527f0b288f0b269acb6632dbb77decab7e54fa69654f896dea9bb0e8434ce10593f1610220820151527f0ffdec790e71cdd16867e968dd88cff7787065efaafc1e2de54a9a6fc3a1c495602061022083015101527f19b614cf4c4903ad8a20b87489116dca6b5d9885145144562b64c9fe1d4f7d55610240820151527f1a2cf5cf48fa836250a356b44eb4d32a8175609db4a2eae9c061c8bab80aa9f0602061024083015101527f27cd35f10e0d24593753f6fd282fb3d96fc328901176345c134948699d25bf6b610260820151527f1b1570dce5e71cb7e16339a87da3c9fc8f8ba07b961783e7cb2f1f2d8ad89e9d60206102608301510152600061028082015260006102a08201527f260e01b251f6f1c7e7ff4e580791dee8ea51d87a358e038b4efe30fac09383c16102c0820151527f0118c4d5b837bcc2bc89b5b398b5974e9f5944073b32078b7e231fec938883b060206102c083015101527f04fc6369f7110fe3d25156c1bb9a72859cf2a04641f99ba4ee413c80da6a5fe460406102c083015101527f22febda3c0c0632a56475b4214e5615e11e6dd3f96e6cea2854a87d4dacc5e5560606102c083015101528091505090565b6109166136d3565b6102808201517f30644e72e131a029b85045b68181585d2833e84879b9709143e1f593f0000001907f30644e72e131a029b85045b68181585d97816a916871ca8d3c208c16d87cfd479060043560240190849015610ac4576000866102a00151602061098291906139a3565b83019050606081013560cc90811b6040830135608890811b6020850135604490811b86350191909101929092019260e0850135811b60c0860135831b60a0870135851b608088013501010192610160860135821b610140870135841b610120880135831b610100890135010101926101e087013590921b6101c087013590921b6101a087013590911b610180870135010101610a6a8484604080518082019091526000808252602082015250604080518082019091527f30644e72e131a029b85045b68181585d2833e84879b9709143e1f593f0000001928390068152919006602082015290565b6103408b0152604080518082018252600080825260209182015281518083019092527f30644e72e131a029b85045b68181585d2833e84879b9709143e1f593f000000180850683528306908201526103608b015250505050505b602087028083019250508260208301350681515282823506602082510152826060830135066020820151528260408301350660208083015101528260a083013506604082015152826080830135066020604083015101528260e0830135066060820151528260c08301350660206060830151015282610120830135066080820151528261010083013506602060808301510152826101608301350660a0820151528261014083013506602060a08301510152826101a08301350660c0820151528261018083013506602060c08301510152826101e08301350660e082015152826101c083013506602060e08301510152826102208301350661010082015152826102008301350660206101008301510152836102408301350661012082015283610260830135066101408201528361028083013506610160820152836102a083013506610180820152836102c0830135066101a0820152836102e0830135066101c082015283610300830135066101e08201528361032083013506610200820152836103408301350661022082015283610360830135066102408201528361038083013506610260820152836103a083013506610280820152836103c0830135066102a0820152836103e0830135066102c082015283610400830135066102e08201528261044083013506610300820151528261042083013506602061030083015101528261048083013506610320820151528261046083013506602061032083015101525050505092915050565b60006040518360181c60208201538360101c60218201538360081c60228201538360238201538260181c60248201538260101c60258201538260081c6026820153826027820153600860209190910120909352505050565b8251604051818152600091907f30644e72e131a029b85045b68181585d2833e84879b9709143e1f593f000000190839060209081019060246004350190870261010001808284376040516020918201902085810660608b0181905260008290529097509350600192509050535060216000209081066080909501949094525050509052565b85516040805191825260208681015181840152955182820152848601516060830152935160808201528285015160a0820152915160c08301529283015160e082015291516101008301526101209091207f30644e72e131a029b85045b68181585d2833e84879b9709143e1f593f0000001810692909101919091529052565b600080600080600080600080610e65898b611ba3565b915091506000806000806000610e7f8f8f60400151611d55565b94509450945094509450610e9887878787878787611e66565b809b50819c50829e50839d5050505050898f610300018181525050505050505050506000610eca84868a86868f611f97565b9a92995091975050505050505050565b82516040518181527f30644e72e131a029b85045b68181585d2833e84879b9709143e1f593f0000001919060009081906102646020878102600435019190910191906101e0908390830137610200902085810660c08901819052600082905290935091506001905060205350602160002083900660e08601819052600260205350602160002083900661010086018190526003602053506021600020839006610120860181905260046020535060216000208390066101408601819052600560205350602160002083900661016086018190526006602053506021600020839006610180860181905260076020535060216000208390066101a0860181905260086020535060216000208390066101c08601819052600960205350602160009081208490066101e0870181905290600a6020535050602160002092830661020090950194909452509092525050565b6040805180820190915260008082526020820152600061104b83858888611fff565b9050600061105a848689612270565b90506000611068858961292a565b90506000611076868a612aa8565b6101c08801516101e08901519192509061108f82612cd9565b61109881612cd9565b6000604051835181526020840151602082015285604082015260408160608360075afa9150875160408201526020880151606082015260408160808360065afa821691508251604082015260208301516060820152846080820152604080820160606040840160075afa8216915060408160808360065afa82169150865160408201526020870151606082015260408860808360065afa8216915050806111a75760405162461bcd60e51b815260206004820152603660248201527f636f6d707574655f6c696e656172697365645f6f70656e696e675f7465726d7360448201527f2067726f7570206f7065726174696f6e73206661696c0000000000000000000060648201526084016102cf565b50949a9950505050505050505050565b60408051808201909152600080825260208201526040805160a08101909152610300850151600091907f30644e72e131a029b85045b68181585d2833e84879b9709143e1f593f000000190839061120e90836139ba565b60a087015190915061121f81612cd9565b805184526020810151602085015281604085015260408460608660075afa6102e08a015160c08901519196509091508061125883612cd9565b8251604087015260208301516060870152848483096080870152604080870160608160075afa965060408660808860065afa60e08a0151971696925061129d83612cd9565b8482830991508251604087015260208301516060870152848483096080870152604080870160608160075afa8716965060408660808860065afa6101008a015197169692506112eb83612cd9565b8481830991508251604087015260208301516060870152848483096080870152604080870160608160075afa8716965060408660808860065afa8716965089925061133583612cd9565b8951604087015260208a0151606087015260408660808860065afa60a08d015160c08e01518b51999092169894509061136d85612cd9565b8660018308915086828209935084516040890152602085015160608901528360808901526040808901606060408b0160075afa8916985060408860808a60065afa891698508d60e0015190508a6020015194506113c985612cd9565b86828209935084516040890152602085015160608901528360808901526040808901606060408b0160075afa8916985060408860808a60065afa891698508d610100015190508a60400151945061141f85612cd9565b86828209935084516040890152602085015160608901528360808901526040808901606060408b0160075afa8916985060408860808a60065afa891698508d610120015190508a60600151945061147585612cd9565b86828209935084516040890152602085015160608901528360808901526040808901606060408b0160075afa8916985060408860808a60065afa891698508d610140015193508c610200015194506114cc85612cd9565b84516040890152602085015160608901528360808901526040808901606060408b0160075afa8916985060408860808a60065afa891698508d610160015193508c6102200151945061151d85612cd9565b84516040890152602085015160608901528360808901526040808901606060408b0160075afa8916985060408860808a60065afa891698508d610180015193508c6102400151945061156e85612cd9565b84516040890152602085015160608901528360808901526040808901606060408b0160075afa8916985060408860808a60065afa891698508d6101a0015193508c610180015194506115bf85612cd9565b84516040890152602085015160608901528360808901526040808901606060408b0160075afa8916985060408860808a60065afa60408051808201909152600080825260208201529916988e6101c0015194508d6101a00151955061162386612cd9565b855160408a0152602086015160608a01528460808a01526040808a01606060408c0160075afa8a16995060408160808b60065afa8a169950896116ce5760405162461bcd60e51b815260206004820152603760248201527f636f6d707574655f62617463685f6f70656e696e675f636f6d6d69746d656e7460448201527f2067726f7570206f7065726174696f6e73206572726f7200000000000000000060648201526084016102cf565b9e9d5050505050505050505050505050565b60c08101516101208301516000917f30644e72e131a029b85045b68181585d2833e84879b9709143e1f593f0000001918391908380828409840892508560e001519150866101400151905083848284098408925085610100015191508661016001519050838482840984089250856101200151915086610180015190508384828409840892508561014001519150866101a0015190508384828409840892508561016001519150866101c0015190508384828409840892508561018001519150866101e001519050838482840984089250856101a0015191508661020001519050838482840984089250856101c0015191508661022001519050838482840984089250856101e0015191508661024001519050838482840984089250866103800151905083818503840892508560c001519150866102800151905060008482840990508660e001519250876102a0015191508485838509820890508661010001519250876102c0015191508485838509820890508661012001519250876102e00151915084858385098208905087610260015192508483820890508660a00151925084838209905084818508955050505050505b92915050565b60a083015160408051808201909152600080825260208201819052919082907f30644e72e131a029b85045b68181585d2833e84879b9709143e1f593f0000001906103208701516103008801516118f081612cd9565b6118f982612cd9565b6040808b0151908901518582820990508588820990508c86039c506040518e51815260208f015160208201528351604082015260208401516060820152826080820152604080820160606040840160075afa975060408160808360065afa881697508451604082015260208501516060820152816080820152604080820160606040840160075afa8816975060408160808360065afa8816975060016040820152600260608201528d6080820152604080820160606040840160075afa8816975060408660808360065afa881697505050506119e8604051806040016040528060008152602001600081525090565b60405182518152602083015160208201528351604082015260208401516060820152876080820152604080820160606040840160075afa8716965060408260808360065afa871696505060007f30644e72e131a029b85045b68181585d97816a916871ca8d3c208c16d87cfd47905060208201518103602083015289610280015115611b18576103408b01516103608c0151611a8382612cd9565b611a8c81612cd9565b6040518251815260208301516020820152888b8c09604082015260406060820160608360075afa8a169950815181526020820151602082015260408160608360075afa8a169950875160a0820152602088015160c082015260408860806060840160065afa8a169950845160408201526020850151606082015260408560808360065afa8a1699505050505b86611b8b5760405162461bcd60e51b815260206004820152602b60248201527f706572666f726d5f70616972696e67204731206f7065726174696f6e7320707260448201527f65616d626c65206661696c00000000000000000000000000000000000000000060648201526084016102cf565b6116ce85611b97612da0565b848d6102c00151612e71565b6000806000846080015190506000846040015190506000602086602001516020611bcd91906139a3565b611bd791906139ba565b6060880151909150600090806001807f30644e72e131a029b85045b68181585d2833e84879b9709143e1f593f0000001818160058609955081600786099450602460043501965086880197505b87871015611c875786358a81018701808701848c8a099850848c8909975060208a01358d81018a01868a8201888a860909975086898886840909985050858d8b099950858d8a099850858110868510168516945050505050604087019650611c24565b6020880197505b87871015611ccf57863582811082169150828b8208905082818801860994508281878901018509935050818987099550818986099450602087019650611c8e565b80611d425760405162461bcd60e51b815260206004820152602e60248201527f7075626c696320696e70757473206172652067726561746572207468616e206360448201527f697263756974206d6f64756c757300000000000000000000000000000000000060648201526084016102cf565b50919c909b509950505050505050505050565b6000806000806000807f30644e72e131a029b85045b68181585d2833e84879b9709143e1f593f000000190506000611d92888a6000015184612f65565b6102e08a018190529050817fffffffffffffffffffffffffffffffffffffffffffffffffffffffffffffffff8101820860808a015160608b015191925090819060009081808d88868103820894508887870995508889878b038308860994508887870995508889878b038308860994508887870995508889878b038308860994508f604001519550600089858a0990508960018b03830893508987880997508988890997508987890997508960018b038b848b0908989e50949c50939a509098509496505050505050509295509295909350565b6000806000806000807f30644e72e131a029b85045b68181585d2833e84879b9709143e1f593f00000019050600060019050604051925061020083016040528c83528a6020840152886040840152876060840152806080840152818351820990508060a0840152816020840151820990508060c0840152816040840151820990508060e084015281606084015182099050611f0081612fa1565b90508160e08401518209826060850151830991508060608501528260c085015183099050826040850151830991508060408501528260a08501518309905082602085015183099150806020850152826080850151830990508284518309818552915082908f0995508160208401518d0996508160408401518b0994508160608401518b099350505050975097509750979350505050565b600080611fa7878787878761305c565b90506000611fb58785613178565b90506000611fc38886613215565b905060007f30644e72e131a029b85045b68181585d2833e84879b9709143e1f593f0000001808084860886089c9b505050505050505050505050565b60408051808201909152600080825260208201526060830151604084015160808501516101208801516101a08901517f30644e72e131a029b85045b68181585d2833e84879b9709143e1f593f000000191600091829190848683088581878a8c090894508581878b850908935050505060008b6101400151905060008c6101c00151905084868308858682888c8a60058e09090886099450858682888c8609088509935050505060008b6101600151905060008c6101e00151905084868308858682888c8a60068e09090886099450858682888c8609088509935050505060008b610180015190508384828688888c8a60078e09090808840992505060008960000151905060008a60200151905060008b60a00151905060008e6102600151905060008c9050878588099650878b89878b868b09098a030995508784898688090994508783898a8885098a08089650878486098e5250505060808d01516102608d01516040805180820190915260008082526020820152919350915061218483612cd9565b61218d82612cd9565b6000604051845181526020850151602082015286604082015260408160608360075afa91508351604082015260208401516060820152856080820152604080820160606040840160075afa8216915060408360808360065afa82169150508061225e5760405162461bcd60e51b815260206004820152603d60248201527f636f6d707574655f6772616e645f70726f647563745f6f70656e696e675f736360448201527f616c61722067726f7570206f7065726174696f6e73206661696c75726500000060648201526084016102cf565b509d9c50505050505050505050505050565b6040805180820190915260008082526020820152610200840151610220850151835160208501516040805160a081019091526101808901516102e08a01518493927f30644e72e131a029b85045b68181585d2833e84879b9709143e1f593f000000192600092839190858060048409870382089250505060008d61012001519050809350848885099350848a8509935084868809965084868809965084868809965084828309858a820990508588820990508581860860a08f0151909550905061233981612cd9565b6000604051825181526020830151602082015286604082015260408660608360075afa915050806123ac5760405162461bcd60e51b815260206004820152601f60248201527f473120706f696e74206d756c7469706c69636174696f6e206661696c6564210060448201526064016102cf565b5050506101408d0151925082848882099350848a85099350848988098581860860c08f015190955090506123df81612cd9565b60006040518251815260208301516020820152866040820152604080870160608360075afa91505060408560808760065afa168061245f5760405162461bcd60e51b815260206004820152601f60248201527f473120706f696e74206d756c7469706c69636174696f6e206661696c6564210060448201526064016102cf565b5050506101608d0151925082848882099350848a85096102c08f0151909450600091508581840991505060008e61014001519050858789099750858183099150858883099150858283089150858a83099150858286089450505060008d6102800151905060008e6101200151905085878909975085818703830891508583830991505060008e6102c001519050858183099150858883099150858a83099150858286089450505060008c60e00151905061251881612cd9565b60006040518251815260208301516020820152856040820152604080860160608360075afa91505060408460808660065afa16806125985760405162461bcd60e51b815260206004820152601f60248201527f473120706f696e74206d756c7469706c69636174696f6e206661696c6564210060448201526064016102cf565b5050506101608c01516101808d01516102408e01519093508390858983099450858b86099450858688890989099750858a84098682820990508689820990508681870895505060008e610100015190506125f181612cd9565b60006040518251815260208301516020820152876040820152604080880160608360075afa91505060408660808860065afa16806126715760405162461bcd60e51b815260206004820152601f60248201527f473120706f696e74206d756c7469706c69636174696f6e206661696c6564210060448201526064016102cf565b505050506101808d01516102408e0151909150818503858380099450858186089450858660028803850886099450858986099450858786099450858b8609945085816001089050858a82099050858282099050858882099050858186086101208f015190955090506126e281612cd9565b60006040518251815260208301516020820152866040820152604080870160608360075afa91505060408560808760065afa16806127625760405162461bcd60e51b815260206004820152601f60248201527f473120706f696e74206d756c7469706c69636174696f6e206661696c6564210060448201526064016102cf565b505050506101208c01516101408d0151848183099350848885099350848a85099350505060008c6101600151905060008d6102400151905084868809965084898309858282099050858882099050858186086101408f015190955090506127c881612cd9565b60006040518251815260208301516020820152866040820152604080870160608360075afa91505060408560808760065afa16806128485760405162461bcd60e51b815260206004820152601f60248201527f473120706f696e74206d756c7469706c69636174696f6e206661696c6564210060448201526064016102cf565b50505050612869604051806040016040528060008152602001600081525090565b6101e08b0151879350848a85099350848185089350848688096101608e015190985061289481612cd9565b60006040518251815260208301516020820152866040820152604080870160608360075afa91505060408460808760065afa16806129145760405162461bcd60e51b815260206004820152601f60248201527f473120706f696e74206d756c7469706c69636174696f6e206661696c6564210060448201526064016102cf565b5050509590995250929998505050505050505050565b6101208201516101408301516101608401516101808501516102e086015160208601518651600096959493929190877f30644e72e131a029b85045b68181585d2833e84879b9709143e1f593f000000180806004880982038808818260048a0983038a08828360048c0984038c08838460048e098503890884848509858587038208905085600287038608868183099150866003880387089050868183099150868983099150819750868a8a0998508685860991508685880383089150866002880386089050868183099150866003880386089050868183099150868983099150868289089750868a8a0998508684850991508684880383089150866002880385089050868183099150866003880385089050868183099150868983099150868289089750868a8a099850868384099150868388038308915086600288038408905086818309915086600388038408905086818309915050858882099050858188089650505050505080848409909a529a9950505050505050505050565b61028082015161012083015160009182917f30644e72e131a029b85045b68181585d2833e84879b9709143e1f593f000000191839182918291829182918291908880600483098a0383086102a08e01516101408f0151919750925090508880600483098a038308945088858708975088868709935088858609925088838508965088888909995088878a038b0860208d01516101608f0151919b506000935091508960028209925089838b038c089a5089828c099a505088828308915088868a03850893508860048709955088868a03850895508860068708955088848709955088868b08995088818b09995088858a03840892508860048609945088858a03840894508860068608945088838609945088858b08995088818b099950886003890995508860038709945088858608975088600489099350888486089450886003880993508860068509965088888a03830897508860518908975088858a038808945088605386086101608e015190955089818a09985089868a08985089818a096101808f0151909950905089600482096102e08f015190955090508985810382086102408f0151909550905089858008935089848608945089858608935089858508935089878b038508935089818509935089878608945089898a08985089898b038608945089848608945089858c088d51909b50905089818c098d5160208f0151919c509950975089965087955085945050505050099050828182099050828183099095525090949350505050565b805160208201516000917f30644e72e131a029b85045b68181585d97816a916871ca8d3c208c16d87cfd4791826003818085800985090883828309148115831517198483108585101616169350505081612d9b5760405162461bcd60e51b815260206004820152602d60248201527f426e3235343a20473120706f696e74206e6f74206f6e2063757276652c206f7260448201527f206973206d616c666f726d65640000000000000000000000000000000000000060648201526084016102cf565b505050565b612dcb6040518060800160405280600081526020016000815260200160008152602001600081525090565b60405180608001604052807f198e9393920d483a7260bfb731fb5d25f1aa493335a9e71297e485b7aef312c281526020017f1800deef121f1e76426a00665e5c4479674322d4f75edadd46debd5cd992f6ed81526020017f090689d0585ff075ec9e99ad690c3395bc4b313370b38ef355acdadcd122975b81526020017f12c85ea5db8c6deb4aab71808dcb408fe3d1e7690c43d37b4ce6cc0166fa7daa815250905090565b6000612e7c85612cd9565b612e8583612cd9565b6000806040518751815260208801516020820152865160408201526020870151606082015260408701516080820152606087015160a0820152855160c0820152602086015160e08201528451610100820152602085015161012082015260408501516101408201526060850151610160820152602060006101808360085afa925050600051905081612f595760405162461bcd60e51b815260206004820152601560248201527f50616972696e6720636865636b206661696c656421000000000000000000000060448201526064016102cf565b15159695505050505050565b6000600184818581015b80821015612f955781871615612f86578583850993505b85838409925090800190612f6f565b50919695505050505050565b6000806000807f30644e72e131a029b85045b68181585d2833e84879b9709143e1f593f0000001905060405160208152602080820152602060408201528560608201526002820360808201528160a08201526020600060c08360055afa9250506000519250816130535760405162461bcd60e51b815260206004820152601b60248201527f706f7720707265636f6d70696c652063616c6c206661696c656421000000000060448201526064016102cf565b50909392505050565b6020840151606085015161026083015160808701516101208501516101408601516101608701516101808801516101a08901516101c08a01516101e08b015160009a8b9a909990987f30644e72e131a029b85045b68181585d2833e84879b9709143e1f593f00000019891979096919590949193909289838c09888801018a838d09898801018b838e098a8801018c8d8284098409925050508a898601820990508a8a820990508a8d82099050808b039d5050505050505050505060008a60000151905060008a905060008a905060008e90508588890986818a098781860988838609925088848a0389088981850993505088818a038d089b505087828c089a5087818709909f5250979e9d5050505050505050505050505050565b6102008101516101608201516101808301518451602086015160009493929190857f30644e72e131a029b85045b68181585d2833e84879b9709143e1f593f00000018087810381898009089150808682600488098303088160028383840909826009830983846007860384870308820890508381840992505050818583838609099250508083850993508083850990995298975050505050505050565b602082015182516101808301516102e08401516102c085015160009493859390927f30644e72e131a029b85045b68181585d2833e84879b9709143e1f593f0000001928592919082850385806004830984089450508486866003880387018860018a0389018a60038b0160018c010909090996508488870995508485878309860388089650848887096102208b01516101208c01516102808d01516101408e01516102c08f0151949a509196509450925090600080808980858a088808925089888b0385089150898283099150898284099250898a858609850991508986870990508960118b038b838508088a03915089858b888c09099050898182089050898b8b8c848608860809925089838d089b50898d8c099a508e610120015197508e6102a0015196508e610140015195508e6102c00151935060008f610280015190508a8b8a8d0387088c898b080993508a818c038a0892508a878c8c89098d030891508a8b8d8d8587098701098e089c508a8e8d099b508f610240015195508f610180015197508f610160015196508a60018c0389088b888d03820893508b8c8e8609820990508b87820990508b818f089d50508a8e8d099b508a8b8d89098c888c09098b038b818f089d50508a8e8d099b508f610140015198508f610160015197508f610180015196508a86888d03600101098b898b098c0393508b8c888f098583010990508b818f089d50508a8e8d099b508f610220015195508a868e099c5050505050505050505050508086600001818152505081935050505092915050565b60405180610320016040528060008152602001600081526020016000815260200160008152602001600081526020016134a3604051806040016040528060008152602001600081525090565b81526020016134c5604051806040016040528060008152602001600081525090565b81526020016134e7604051806040016040528060008152602001600081525090565b8152602001613509604051806040016040528060008152602001600081525090565b815260200161352b604051806040016040528060008152602001600081525090565b815260200161354d604051806040016040528060008152602001600081525090565b815260200161356f604051806040016040528060008152602001600081525090565b8152602001613591604051806040016040528060008152602001600081525090565b81526020016135b3604051806040016040528060008152602001600081525090565b81526020016135d5604051806040016040528060008152602001600081525090565b81526020016135f7604051806040016040528060008152602001600081525090565b8152602001613619604051806040016040528060008152602001600081525090565b815260200161363b604051806040016040528060008152602001600081525090565b815260200161365d604051806040016040528060008152602001600081525090565b815260200161367f604051806040016040528060008152602001600081525090565b8152602001600015158152602001600081526020016136bf6040518060800160405280600081526020016000815260200160008152602001600081525090565b815260200160008152602001600081525090565b604080516103e0810190915260006103a082018181526103c083019190915281908152602001613716604051806040016040528060008152602001600081525090565b8152602001613738604051806040016040528060008152602001600081525090565b815260200161375a604051806040016040528060008152602001600081525090565b815260200161377c604051806040016040528060008152602001600081525090565b815260200161379e604051806040016040528060008152602001600081525090565b81526020016137c0604051806040016040528060008152602001600081525090565b81526020016137e2604051806040016040528060008152602001600081525090565b8152602001613804604051806040016040528060008152602001600081525090565b815260200160008152602001600081526020016000815260200160008152602001600081526020016000815260200160008152602001600081526020016000815260200160008152602001600081526020016000815260200160008152602001600081526020016000815260200161388f604051806040016040528060008152602001600081525090565b81526020016138b1604051806040016040528060008152602001600081525090565b81526020016138d3604051806040016040528060008152602001600081525090565b81526020016138f5604051806040016040528060008152602001600081525090565b8152602001600081525090565b6000806020838503121561391557600080fd5b823567ffffffffffffffff8082111561392d57600080fd5b818501915085601f83011261394157600080fd5b81358181111561395057600080fd5b86602082850101111561396257600080fd5b60209290920196919550909350505050565b7f4e487b7100000000000000000000000000000000000000000000000000000000600052601160045260246000fd5b808202811582820484141761189457611894613974565b818103818111156118945761189461397456fea26469706673582212208ea5c26943227969e6a70bee028aff0975502fcc868eddd5ac47896994154dfa64736f6c63430008120033","opcodes":"PUSH1 0x80 PUSH1 0x40 MSTORE CALLVALUE DUP1 ISZERO PUSH2 0x10 JUMPI PUSH1 0x0 DUP1 REVERT JUMPDEST POP PUSH2 0x3A03 DUP1 PUSH2 0x20 PUSH1 0x0 CODECOPY PUSH1 0x0 RETURN INVALID PUSH1 0x80 PUSH1 0x40 MSTORE CALLVALUE DUP1 ISZERO PUSH2 0x10 JUMPI PUSH1 0x0 DUP1 REVERT JUMPDEST POP PUSH1 0x4 CALLDATASIZE LT PUSH2 0x2B JUMPI PUSH1 0x0 CALLDATALOAD PUSH1 0xE0 SHR DUP1 PUSH4 0x8E760AFE EQ PUSH2 0x30 JUMPI JUMPDEST PUSH1 0x0 DUP1 REVERT JUMPDEST PUSH2 0x43 PUSH2 0x3E CALLDATASIZE PUSH1 0x4 PUSH2 0x3902 JUMP JUMPDEST PUSH2 0x57 JUMP JUMPDEST PUSH1 0x40 MLOAD SWAP1 ISZERO ISZERO DUP2 MSTORE PUSH1 0x20 ADD PUSH1 0x40 MLOAD DUP1 SWAP2 SUB SWAP1 RETURN JUMPDEST PUSH1 0x0 DUP1 PUSH2 0x62 PUSH2 0x2E8 JUMP JUMPDEST PUSH1 0x20 DUP2 ADD MLOAD SWAP1 SWAP2 POP PUSH1 0x0 PUSH2 0x76 DUP3 DUP5 PUSH2 0x90E JUMP JUMPDEST PUSH1 0x40 DUP1 MLOAD PUSH1 0x20 DUP2 ADD SWAP1 SWAP2 MSTORE PUSH1 0x0 DUP2 MSTORE SWAP1 SWAP2 POP DUP4 MLOAD PUSH1 0x20 DUP6 ADD MLOAD PUSH2 0x9A SWAP2 DUP4 SWAP2 PUSH2 0xCF3 JUMP JUMPDEST PUSH2 0x121 PUSH1 0x40 MLOAD DUP1 PUSH2 0x220 ADD PUSH1 0x40 MSTORE DUP1 PUSH1 0x0 DUP2 MSTORE PUSH1 0x20 ADD PUSH1 0x0 DUP2 MSTORE PUSH1 0x20 ADD PUSH1 0x0 DUP2 MSTORE PUSH1 0x20 ADD PUSH1 0x0 DUP2 MSTORE PUSH1 0x20 ADD PUSH1 0x0 DUP2 MSTORE PUSH1 0x20 ADD PUSH1 0x0 DUP2 MSTORE PUSH1 0x20 ADD PUSH1 0x0 DUP2 MSTORE PUSH1 0x20 ADD PUSH1 0x0 DUP2 MSTORE PUSH1 0x20 ADD PUSH1 0x0 DUP2 MSTORE PUSH1 0x20 ADD PUSH1 0x0 DUP2 MSTORE PUSH1 0x20 ADD PUSH1 0x0 DUP2 MSTORE PUSH1 0x20 ADD PUSH1 0x0 DUP2 MSTORE PUSH1 0x20 ADD PUSH1 0x0 DUP2 MSTORE PUSH1 0x20 ADD PUSH1 0x0 DUP2 MSTORE PUSH1 0x20 ADD PUSH1 0x0 DUP2 MSTORE PUSH1 0x20 ADD PUSH1 0x0 DUP2 MSTORE PUSH1 0x20 ADD PUSH1 0x0 DUP2 MSTORE POP SWAP1 JUMP JUMPDEST PUSH1 0x20 DUP6 ADD MLOAD PUSH2 0x133 SWAP1 DUP4 SWAP1 DUP4 SWAP1 PUSH2 0xD4B JUMP JUMPDEST PUSH1 0x80 DUP4 ADD MLOAD DUP3 MLOAD PUSH1 0x40 DUP1 MLOAD SWAP2 DUP3 MSTORE PUSH1 0x20 DUP1 DUP5 ADD MLOAD DUP2 DUP5 ADD MSTORE SWAP3 MLOAD SWAP1 DUP3 ADD MSTORE PUSH1 0x60 SWAP1 KECCAK256 PUSH32 0x30644E72E131A029B85045B68181585D2833E84879B9709143E1F593F0000001 DUP2 MOD SWAP2 DUP4 ADD DUP3 SWAP1 MSTORE SWAP1 DUP3 MSTORE DUP3 MSTORE PUSH2 0x1AF DUP2 DUP5 PUSH1 0xA0 ADD MLOAD DUP6 PUSH1 0xC0 ADD MLOAD DUP7 PUSH1 0xE0 ADD MLOAD DUP8 PUSH2 0x100 ADD MLOAD DUP8 PUSH2 0xDD0 SWAP1 SWAP6 SWAP5 SWAP4 SWAP3 SWAP2 SWAP1 PUSH4 0xFFFFFFFF AND JUMP JUMPDEST PUSH1 0x0 DUP1 PUSH2 0x1BD DUP6 DUP9 DUP6 PUSH2 0xE4F JUMP JUMPDEST PUSH2 0x380 DUP8 ADD DUP3 SWAP1 MSTORE PUSH1 0x20 DUP10 ADD MLOAD SWAP2 SWAP4 POP SWAP2 POP PUSH2 0x1DC SWAP1 DUP6 SWAP1 DUP6 SWAP1 PUSH2 0xEDA JUMP JUMPDEST PUSH2 0x300 DUP6 ADD MLOAD PUSH2 0x320 DUP7 ADD MLOAD DUP6 MLOAD PUSH1 0x40 DUP1 MLOAD SWAP2 DUP3 MSTORE PUSH1 0x20 DUP1 DUP6 ADD MLOAD DUP2 DUP5 ADD MSTORE SWAP4 MLOAD SWAP1 DUP3 ADD MSTORE SWAP2 DUP2 ADD MLOAD PUSH1 0x60 DUP4 ADD MSTORE MLOAD PUSH1 0x80 DUP3 ADD MSTORE PUSH1 0xA0 SWAP1 DUP2 SWAP1 KECCAK256 PUSH32 0x30644E72E131A029B85045B68181585D2833E84879B9709143E1F593F0000001 DUP2 MOD SWAP2 DUP6 ADD SWAP2 SWAP1 SWAP2 MSTORE DUP5 MSTORE PUSH1 0x20 DUP4 ADD MLOAD DUP4 MSTORE PUSH1 0x0 PUSH2 0x257 DUP5 DUP4 DUP11 DUP10 PUSH2 0x1029 JUMP JUMPDEST SWAP1 POP PUSH1 0x0 PUSH2 0x267 DUP6 DUP11 DUP5 DUP11 PUSH2 0x11B7 JUMP JUMPDEST SWAP1 POP PUSH1 0x0 PUSH2 0x275 DUP9 DUP8 PUSH2 0x16E0 JUMP JUMPDEST SWAP1 POP PUSH2 0x284 DUP3 DUP3 DUP9 DUP12 DUP15 PUSH2 0x189A JUMP JUMPDEST SWAP11 POP DUP11 PUSH2 0x2D8 JUMPI PUSH1 0x40 MLOAD PUSH3 0x461BCD PUSH1 0xE5 SHL DUP2 MSTORE PUSH1 0x20 PUSH1 0x4 DUP3 ADD MSTORE PUSH1 0xC PUSH1 0x24 DUP3 ADD MSTORE PUSH32 0x50726F6F66206661696C65640000000000000000000000000000000000000000 PUSH1 0x44 DUP3 ADD MSTORE PUSH1 0x64 ADD JUMPDEST PUSH1 0x40 MLOAD DUP1 SWAP2 SUB SWAP1 REVERT JUMPDEST POP POP POP POP POP POP POP POP POP POP SWAP3 SWAP2 POP POP JUMP JUMPDEST PUSH2 0x2F0 PUSH2 0x3457 JUMP JUMPDEST PUSH2 0x2F8 PUSH2 0x3457 JUMP JUMPDEST PUSH1 0x10 PUSH1 0x0 DUP3 ADD MSTORE PUSH1 0x2 PUSH1 0x20 DUP3 ADD MSTORE PUSH32 0x21082CA216CBBF4E1C6E4F4594DD508C996DFBE1174EFB98B11509C6E306460B PUSH1 0x40 DUP3 ADD MSTORE PUSH32 0x2D5E098BB31E86271CCB415B196942D755B0A9C3F21DD9882FA3D63AB1000001 PUSH1 0x60 DUP3 ADD MSTORE PUSH32 0x2E40DAF409556C02BFC85EB303402B774954D30AEB0337EB85A71E6373428DE PUSH1 0x80 DUP3 ADD MSTORE PUSH32 0x127FF3A3561783A1A12805E9C397F725EB4531BD5EA221E903BB207FD5545C8F PUSH1 0xA0 DUP3 ADD MLOAD MSTORE PUSH32 0xAB891F8C4D311AE55EDCCE2E9659AA7D5415C44F3C0137841987C576B53A1E9 PUSH1 0x20 PUSH1 0xA0 DUP4 ADD MLOAD ADD MSTORE PUSH32 0x1F0F9D51575E2FA791E3DF91B40E540FAF059A40E2686127284D7DAE2F895D24 PUSH1 0xC0 DUP3 ADD MLOAD MSTORE PUSH32 0x1CEC6D89C93E47AD897C01EECF6E48B71C5F69EE42A6248E7A7FEC92B7E834DC PUSH1 0x20 PUSH1 0xC0 DUP4 ADD MLOAD ADD MSTORE PUSH31 0x43486FBAEC600B8C1EAE886922EC87A0E63E538B1175285C8776FEDD190832 PUSH1 0xE0 DUP3 ADD MLOAD MSTORE PUSH32 0xCC5EB162F0EB38E66E4AE1C897B867F64E4485B90545B1CDA7546AF25415872 PUSH1 0x20 PUSH1 0xE0 DUP4 ADD MLOAD ADD MSTORE PUSH32 0x2950076760523510ABCFE90FA550B964E84B338F73AF5222CDBBAEFDACD4484E PUSH2 0x100 DUP3 ADD MLOAD MSTORE PUSH32 0x2E4E3E272C7B78AD894559812D7766E05615A8F7050A43D7ED1367ADF30A9319 PUSH1 0x20 PUSH2 0x100 DUP4 ADD MLOAD ADD MSTORE PUSH32 0x2950076760523510ABCFE90FA550B964E84B338F73AF5222CDBBAEFDACD4484E PUSH2 0x120 DUP3 ADD MLOAD MSTORE PUSH32 0x2E4E3E272C7B78AD894559812D7766E05615A8F7050A43D7ED1367ADF30A9319 PUSH1 0x20 PUSH2 0x120 DUP4 ADD MLOAD ADD MSTORE PUSH32 0x9553FB1DD8A17EF4B194224D94CB748F73794A8F4CA87E981ED21A536449C3E PUSH2 0x140 DUP3 ADD MLOAD MSTORE PUSH32 0x2065B2DA0647E6320585B9A74542668A12A624E44C0CB653A6DBB82BF97C4EFF PUSH1 0x20 PUSH2 0x140 DUP4 ADD MLOAD ADD MSTORE PUSH32 0x70ABAF9FEBD22BE049B3CDBA8A02F8677E4D50300BD399475C29E556EF6D7CC PUSH2 0x160 DUP3 ADD MLOAD MSTORE PUSH32 0x739ADAA2458D713F714568D2CA6AFB3D9490FAE9C396E143414A12FA0F6B460 PUSH1 0x20 PUSH2 0x160 DUP4 ADD MLOAD ADD MSTORE PUSH32 0x23DF70A8E85C3EA1FFA0F8F0A644F3642C55A391C37F69A335085BBD4437E3DD PUSH2 0x180 DUP3 ADD MLOAD MSTORE PUSH32 0x5403F9AA5D2B1BF6C068FA33F26705B45224705DF78BF4006394B05D41BA93B PUSH1 0x20 PUSH2 0x180 DUP4 ADD MLOAD ADD MSTORE PUSH32 0x2950076760523510ABCFE90FA550B964E84B338F73AF5222CDBBAEFDACD4484E PUSH2 0x1A0 DUP3 ADD MLOAD MSTORE PUSH32 0x2E4E3E272C7B78AD894559812D7766E05615A8F7050A43D7ED1367ADF30A9319 PUSH1 0x20 PUSH2 0x1A0 DUP4 ADD MLOAD ADD MSTORE PUSH32 0x2950076760523510ABCFE90FA550B964E84B338F73AF5222CDBBAEFDACD4484E PUSH2 0x1C0 DUP3 ADD MLOAD MSTORE PUSH32 0x2E4E3E272C7B78AD894559812D7766E05615A8F7050A43D7ED1367ADF30A9319 PUSH1 0x20 PUSH2 0x1C0 DUP4 ADD MLOAD ADD MSTORE PUSH32 0x2950076760523510ABCFE90FA550B964E84B338F73AF5222CDBBAEFDACD4484E PUSH2 0x1E0 DUP3 ADD MLOAD MSTORE PUSH32 0x2E4E3E272C7B78AD894559812D7766E05615A8F7050A43D7ED1367ADF30A9319 PUSH1 0x20 PUSH2 0x1E0 DUP4 ADD MLOAD ADD MSTORE PUSH32 0xB2607D29F785B1A42B1C29ADECE19DBF6E72EBBFCEDE9DDDA3B25041E152C3B PUSH2 0x200 DUP3 ADD MLOAD MSTORE PUSH32 0xB9D784C59475A188D074BCBA14A53C6467D30BEF14989D4D525EC77642AA6DD PUSH1 0x20 PUSH2 0x200 DUP4 ADD MLOAD ADD MSTORE PUSH32 0xB288F0B269ACB6632DBB77DECAB7E54FA69654F896DEA9BB0E8434CE10593F1 PUSH2 0x220 DUP3 ADD MLOAD MSTORE PUSH32 0xFFDEC790E71CDD16867E968DD88CFF7787065EFAAFC1E2DE54A9A6FC3A1C495 PUSH1 0x20 PUSH2 0x220 DUP4 ADD MLOAD ADD MSTORE PUSH32 0x19B614CF4C4903AD8A20B87489116DCA6B5D9885145144562B64C9FE1D4F7D55 PUSH2 0x240 DUP3 ADD MLOAD MSTORE PUSH32 0x1A2CF5CF48FA836250A356B44EB4D32A8175609DB4A2EAE9C061C8BAB80AA9F0 PUSH1 0x20 PUSH2 0x240 DUP4 ADD MLOAD ADD MSTORE PUSH32 0x27CD35F10E0D24593753F6FD282FB3D96FC328901176345C134948699D25BF6B PUSH2 0x260 DUP3 ADD MLOAD MSTORE PUSH32 0x1B1570DCE5E71CB7E16339A87DA3C9FC8F8BA07B961783E7CB2F1F2D8AD89E9D PUSH1 0x20 PUSH2 0x260 DUP4 ADD MLOAD ADD MSTORE PUSH1 0x0 PUSH2 0x280 DUP3 ADD MSTORE PUSH1 0x0 PUSH2 0x2A0 DUP3 ADD MSTORE PUSH32 0x260E01B251F6F1C7E7FF4E580791DEE8EA51D87A358E038B4EFE30FAC09383C1 PUSH2 0x2C0 DUP3 ADD MLOAD MSTORE PUSH32 0x118C4D5B837BCC2BC89B5B398B5974E9F5944073B32078B7E231FEC938883B0 PUSH1 0x20 PUSH2 0x2C0 DUP4 ADD MLOAD ADD MSTORE PUSH32 0x4FC6369F7110FE3D25156C1BB9A72859CF2A04641F99BA4EE413C80DA6A5FE4 PUSH1 0x40 PUSH2 0x2C0 DUP4 ADD MLOAD ADD MSTORE PUSH32 0x22FEBDA3C0C0632A56475B4214E5615E11E6DD3F96E6CEA2854A87D4DACC5E55 PUSH1 0x60 PUSH2 0x2C0 DUP4 ADD MLOAD ADD MSTORE DUP1 SWAP2 POP POP SWAP1 JUMP JUMPDEST PUSH2 0x916 PUSH2 0x36D3 JUMP JUMPDEST PUSH2 0x280 DUP3 ADD MLOAD PUSH32 0x30644E72E131A029B85045B68181585D2833E84879B9709143E1F593F0000001 SWAP1 PUSH32 0x30644E72E131A029B85045B68181585D97816A916871CA8D3C208C16D87CFD47 SWAP1 PUSH1 0x4 CALLDATALOAD PUSH1 0x24 ADD SWAP1 DUP5 SWAP1 ISZERO PUSH2 0xAC4 JUMPI PUSH1 0x0 DUP7 PUSH2 0x2A0 ADD MLOAD PUSH1 0x20 PUSH2 0x982 SWAP2 SWAP1 PUSH2 0x39A3 JUMP JUMPDEST DUP4 ADD SWAP1 POP PUSH1 0x60 DUP2 ADD CALLDATALOAD PUSH1 0xCC SWAP1 DUP2 SHL PUSH1 0x40 DUP4 ADD CALLDATALOAD PUSH1 0x88 SWAP1 DUP2 SHL PUSH1 0x20 DUP6 ADD CALLDATALOAD PUSH1 0x44 SWAP1 DUP2 SHL DUP7 CALLDATALOAD ADD SWAP2 SWAP1 SWAP2 ADD SWAP3 SWAP1 SWAP3 ADD SWAP3 PUSH1 0xE0 DUP6 ADD CALLDATALOAD DUP2 SHL PUSH1 0xC0 DUP7 ADD CALLDATALOAD DUP4 SHL PUSH1 0xA0 DUP8 ADD CALLDATALOAD DUP6 SHL PUSH1 0x80 DUP9 ADD CALLDATALOAD ADD ADD ADD SWAP3 PUSH2 0x160 DUP7 ADD CALLDATALOAD DUP3 SHL PUSH2 0x140 DUP8 ADD CALLDATALOAD DUP5 SHL PUSH2 0x120 DUP9 ADD CALLDATALOAD DUP4 SHL PUSH2 0x100 DUP10 ADD CALLDATALOAD ADD ADD ADD SWAP3 PUSH2 0x1E0 DUP8 ADD CALLDATALOAD SWAP1 SWAP3 SHL PUSH2 0x1C0 DUP8 ADD CALLDATALOAD SWAP1 SWAP3 SHL PUSH2 0x1A0 DUP8 ADD CALLDATALOAD SWAP1 SWAP2 SHL PUSH2 0x180 DUP8 ADD CALLDATALOAD ADD ADD ADD PUSH2 0xA6A DUP5 DUP5 PUSH1 0x40 DUP1 MLOAD DUP1 DUP3 ADD SWAP1 SWAP2 MSTORE PUSH1 0x0 DUP1 DUP3 MSTORE PUSH1 0x20 DUP3 ADD MSTORE POP PUSH1 0x40 DUP1 MLOAD DUP1 DUP3 ADD SWAP1 SWAP2 MSTORE PUSH32 0x30644E72E131A029B85045B68181585D2833E84879B9709143E1F593F0000001 SWAP3 DUP4 SWAP1 MOD DUP2 MSTORE SWAP2 SWAP1 MOD PUSH1 0x20 DUP3 ADD MSTORE SWAP1 JUMP JUMPDEST PUSH2 0x340 DUP12 ADD MSTORE PUSH1 0x40 DUP1 MLOAD DUP1 DUP3 ADD DUP3 MSTORE PUSH1 0x0 DUP1 DUP3 MSTORE PUSH1 0x20 SWAP2 DUP3 ADD MSTORE DUP2 MLOAD DUP1 DUP4 ADD SWAP1 SWAP3 MSTORE PUSH32 0x30644E72E131A029B85045B68181585D2833E84879B9709143E1F593F0000001 DUP1 DUP6 MOD DUP4 MSTORE DUP4 MOD SWAP1 DUP3 ADD MSTORE PUSH2 0x360 DUP12 ADD MSTORE POP POP POP POP POP JUMPDEST PUSH1 0x20 DUP8 MUL DUP1 DUP4 ADD SWAP3 POP POP DUP3 PUSH1 0x20 DUP4 ADD CALLDATALOAD MOD DUP2 MLOAD MSTORE DUP3 DUP3 CALLDATALOAD MOD PUSH1 0x20 DUP3 MLOAD ADD MSTORE DUP3 PUSH1 0x60 DUP4 ADD CALLDATALOAD MOD PUSH1 0x20 DUP3 ADD MLOAD MSTORE DUP3 PUSH1 0x40 DUP4 ADD CALLDATALOAD MOD PUSH1 0x20 DUP1 DUP4 ADD MLOAD ADD MSTORE DUP3 PUSH1 0xA0 DUP4 ADD CALLDATALOAD MOD PUSH1 0x40 DUP3 ADD MLOAD MSTORE DUP3 PUSH1 0x80 DUP4 ADD CALLDATALOAD MOD PUSH1 0x20 PUSH1 0x40 DUP4 ADD MLOAD ADD MSTORE DUP3 PUSH1 0xE0 DUP4 ADD CALLDATALOAD MOD PUSH1 0x60 DUP3 ADD MLOAD MSTORE DUP3 PUSH1 0xC0 DUP4 ADD CALLDATALOAD MOD PUSH1 0x20 PUSH1 0x60 DUP4 ADD MLOAD ADD MSTORE DUP3 PUSH2 0x120 DUP4 ADD CALLDATALOAD MOD PUSH1 0x80 DUP3 ADD MLOAD MSTORE DUP3 PUSH2 0x100 DUP4 ADD CALLDATALOAD MOD PUSH1 0x20 PUSH1 0x80 DUP4 ADD MLOAD ADD MSTORE DUP3 PUSH2 0x160 DUP4 ADD CALLDATALOAD MOD PUSH1 0xA0 DUP3 ADD MLOAD MSTORE DUP3 PUSH2 0x140 DUP4 ADD CALLDATALOAD MOD PUSH1 0x20 PUSH1 0xA0 DUP4 ADD MLOAD ADD MSTORE DUP3 PUSH2 0x1A0 DUP4 ADD CALLDATALOAD MOD PUSH1 0xC0 DUP3 ADD MLOAD MSTORE DUP3 PUSH2 0x180 DUP4 ADD CALLDATALOAD MOD PUSH1 0x20 PUSH1 0xC0 DUP4 ADD MLOAD ADD MSTORE DUP3 PUSH2 0x1E0 DUP4 ADD CALLDATALOAD MOD PUSH1 0xE0 DUP3 ADD MLOAD MSTORE DUP3 PUSH2 0x1C0 DUP4 ADD CALLDATALOAD MOD PUSH1 0x20 PUSH1 0xE0 DUP4 ADD MLOAD ADD MSTORE DUP3 PUSH2 0x220 DUP4 ADD CALLDATALOAD MOD PUSH2 0x100 DUP3 ADD MLOAD MSTORE DUP3 PUSH2 0x200 DUP4 ADD CALLDATALOAD MOD PUSH1 0x20 PUSH2 0x100 DUP4 ADD MLOAD ADD MSTORE DUP4 PUSH2 0x240 DUP4 ADD CALLDATALOAD MOD PUSH2 0x120 DUP3 ADD MSTORE DUP4 PUSH2 0x260 DUP4 ADD CALLDATALOAD MOD PUSH2 0x140 DUP3 ADD MSTORE DUP4 PUSH2 0x280 DUP4 ADD CALLDATALOAD MOD PUSH2 0x160 DUP3 ADD MSTORE DUP4 PUSH2 0x2A0 DUP4 ADD CALLDATALOAD MOD PUSH2 0x180 DUP3 ADD MSTORE DUP4 PUSH2 0x2C0 DUP4 ADD CALLDATALOAD MOD PUSH2 0x1A0 DUP3 ADD MSTORE DUP4 PUSH2 0x2E0 DUP4 ADD CALLDATALOAD MOD PUSH2 0x1C0 DUP3 ADD MSTORE DUP4 PUSH2 0x300 DUP4 ADD CALLDATALOAD MOD PUSH2 0x1E0 DUP3 ADD MSTORE DUP4 PUSH2 0x320 DUP4 ADD CALLDATALOAD MOD PUSH2 0x200 DUP3 ADD MSTORE DUP4 PUSH2 0x340 DUP4 ADD CALLDATALOAD MOD PUSH2 0x220 DUP3 ADD MSTORE DUP4 PUSH2 0x360 DUP4 ADD CALLDATALOAD MOD PUSH2 0x240 DUP3 ADD MSTORE DUP4 PUSH2 0x380 DUP4 ADD CALLDATALOAD MOD PUSH2 0x260 DUP3 ADD MSTORE DUP4 PUSH2 0x3A0 DUP4 ADD CALLDATALOAD MOD PUSH2 0x280 DUP3 ADD MSTORE DUP4 PUSH2 0x3C0 DUP4 ADD CALLDATALOAD MOD PUSH2 0x2A0 DUP3 ADD MSTORE DUP4 PUSH2 0x3E0 DUP4 ADD CALLDATALOAD MOD PUSH2 0x2C0 DUP3 ADD MSTORE DUP4 PUSH2 0x400 DUP4 ADD CALLDATALOAD MOD PUSH2 0x2E0 DUP3 ADD MSTORE DUP3 PUSH2 0x440 DUP4 ADD CALLDATALOAD MOD PUSH2 0x300 DUP3 ADD MLOAD MSTORE DUP3 PUSH2 0x420 DUP4 ADD CALLDATALOAD MOD PUSH1 0x20 PUSH2 0x300 DUP4 ADD MLOAD ADD MSTORE DUP3 PUSH2 0x480 DUP4 ADD CALLDATALOAD MOD PUSH2 0x320 DUP3 ADD MLOAD MSTORE DUP3 PUSH2 0x460 DUP4 ADD CALLDATALOAD MOD PUSH1 0x20 PUSH2 0x320 DUP4 ADD MLOAD ADD MSTORE POP POP POP POP SWAP3 SWAP2 POP POP JUMP JUMPDEST PUSH1 0x0 PUSH1 0x40 MLOAD DUP4 PUSH1 0x18 SHR PUSH1 0x20 DUP3 ADD MSTORE8 DUP4 PUSH1 0x10 SHR PUSH1 0x21 DUP3 ADD MSTORE8 DUP4 PUSH1 0x8 SHR PUSH1 0x22 DUP3 ADD MSTORE8 DUP4 PUSH1 0x23 DUP3 ADD MSTORE8 DUP3 PUSH1 0x18 SHR PUSH1 0x24 DUP3 ADD MSTORE8 DUP3 PUSH1 0x10 SHR PUSH1 0x25 DUP3 ADD MSTORE8 DUP3 PUSH1 0x8 SHR PUSH1 0x26 DUP3 ADD MSTORE8 DUP3 PUSH1 0x27 DUP3 ADD MSTORE8 PUSH1 0x8 PUSH1 0x20 SWAP2 SWAP1 SWAP2 ADD KECCAK256 SWAP1 SWAP4 MSTORE POP POP POP JUMP JUMPDEST DUP3 MLOAD PUSH1 0x40 MLOAD DUP2 DUP2 MSTORE PUSH1 0x0 SWAP2 SWAP1 PUSH32 0x30644E72E131A029B85045B68181585D2833E84879B9709143E1F593F0000001 SWAP1 DUP4 SWAP1 PUSH1 0x20 SWAP1 DUP2 ADD SWAP1 PUSH1 0x24 PUSH1 0x4 CALLDATALOAD ADD SWAP1 DUP8 MUL PUSH2 0x100 ADD DUP1 DUP3 DUP5 CALLDATACOPY PUSH1 0x40 MLOAD PUSH1 0x20 SWAP2 DUP3 ADD SWAP1 KECCAK256 DUP6 DUP2 MOD PUSH1 0x60 DUP12 ADD DUP2 SWAP1 MSTORE PUSH1 0x0 DUP3 SWAP1 MSTORE SWAP1 SWAP8 POP SWAP4 POP PUSH1 0x1 SWAP3 POP SWAP1 POP MSTORE8 POP PUSH1 0x21 PUSH1 0x0 KECCAK256 SWAP1 DUP2 MOD PUSH1 0x80 SWAP1 SWAP6 ADD SWAP5 SWAP1 SWAP5 MSTORE POP POP POP SWAP1 MSTORE JUMP JUMPDEST DUP6 MLOAD PUSH1 0x40 DUP1 MLOAD SWAP2 DUP3 MSTORE PUSH1 0x20 DUP7 DUP2 ADD MLOAD DUP2 DUP5 ADD MSTORE SWAP6 MLOAD DUP3 DUP3 ADD MSTORE DUP5 DUP7 ADD MLOAD PUSH1 0x60 DUP4 ADD MSTORE SWAP4 MLOAD PUSH1 0x80 DUP3 ADD MSTORE DUP3 DUP6 ADD MLOAD PUSH1 0xA0 DUP3 ADD MSTORE SWAP2 MLOAD PUSH1 0xC0 DUP4 ADD MSTORE SWAP3 DUP4 ADD MLOAD PUSH1 0xE0 DUP3 ADD MSTORE SWAP2 MLOAD PUSH2 0x100 DUP4 ADD MSTORE PUSH2 0x120 SWAP1 SWAP2 KECCAK256 PUSH32 0x30644E72E131A029B85045B68181585D2833E84879B9709143E1F593F0000001 DUP2 MOD SWAP3 SWAP1 SWAP2 ADD SWAP2 SWAP1 SWAP2 MSTORE SWAP1 MSTORE JUMP JUMPDEST PUSH1 0x0 DUP1 PUSH1 0x0 DUP1 PUSH1 0x0 DUP1 PUSH1 0x0 DUP1 PUSH2 0xE65 DUP10 DUP12 PUSH2 0x1BA3 JUMP JUMPDEST SWAP2 POP SWAP2 POP PUSH1 0x0 DUP1 PUSH1 0x0 DUP1 PUSH1 0x0 PUSH2 0xE7F DUP16 DUP16 PUSH1 0x40 ADD MLOAD PUSH2 0x1D55 JUMP JUMPDEST SWAP5 POP SWAP5 POP SWAP5 POP SWAP5 POP SWAP5 POP PUSH2 0xE98 DUP8 DUP8 DUP8 DUP8 DUP8 DUP8 DUP8 PUSH2 0x1E66 JUMP JUMPDEST DUP1 SWAP12 POP DUP2 SWAP13 POP DUP3 SWAP15 POP DUP4 SWAP14 POP POP POP POP POP DUP10 DUP16 PUSH2 0x300 ADD DUP2 DUP2 MSTORE POP POP POP POP POP POP POP POP POP PUSH1 0x0 PUSH2 0xECA DUP5 DUP7 DUP11 DUP7 DUP7 DUP16 PUSH2 0x1F97 JUMP JUMPDEST SWAP11 SWAP3 SWAP10 POP SWAP2 SWAP8 POP POP POP POP POP POP POP POP JUMP JUMPDEST DUP3 MLOAD PUSH1 0x40 MLOAD DUP2 DUP2 MSTORE PUSH32 0x30644E72E131A029B85045B68181585D2833E84879B9709143E1F593F0000001 SWAP2 SWAP1 PUSH1 0x0 SWAP1 DUP2 SWAP1 PUSH2 0x264 PUSH1 0x20 DUP8 DUP2 MUL PUSH1 0x4 CALLDATALOAD ADD SWAP2 SWAP1 SWAP2 ADD SWAP2 SWAP1 PUSH2 0x1E0 SWAP1 DUP4 SWAP1 DUP4 ADD CALLDATACOPY PUSH2 0x200 SWAP1 KECCAK256 DUP6 DUP2 MOD PUSH1 0xC0 DUP10 ADD DUP2 SWAP1 MSTORE PUSH1 0x0 DUP3 SWAP1 MSTORE SWAP1 SWAP4 POP SWAP2 POP PUSH1 0x1 SWAP1 POP PUSH1 0x20 MSTORE8 POP PUSH1 0x21 PUSH1 0x0 KECCAK256 DUP4 SWAP1 MOD PUSH1 0xE0 DUP7 ADD DUP2 SWAP1 MSTORE PUSH1 0x2 PUSH1 0x20 MSTORE8 POP PUSH1 0x21 PUSH1 0x0 KECCAK256 DUP4 SWAP1 MOD PUSH2 0x100 DUP7 ADD DUP2 SWAP1 MSTORE PUSH1 0x3 PUSH1 0x20 MSTORE8 POP PUSH1 0x21 PUSH1 0x0 KECCAK256 DUP4 SWAP1 MOD PUSH2 0x120 DUP7 ADD DUP2 SWAP1 MSTORE PUSH1 0x4 PUSH1 0x20 MSTORE8 POP PUSH1 0x21 PUSH1 0x0 KECCAK256 DUP4 SWAP1 MOD PUSH2 0x140 DUP7 ADD DUP2 SWAP1 MSTORE PUSH1 0x5 PUSH1 0x20 MSTORE8 POP PUSH1 0x21 PUSH1 0x0 KECCAK256 DUP4 SWAP1 MOD PUSH2 0x160 DUP7 ADD DUP2 SWAP1 MSTORE PUSH1 0x6 PUSH1 0x20 MSTORE8 POP PUSH1 0x21 PUSH1 0x0 KECCAK256 DUP4 SWAP1 MOD PUSH2 0x180 DUP7 ADD DUP2 SWAP1 MSTORE PUSH1 0x7 PUSH1 0x20 MSTORE8 POP PUSH1 0x21 PUSH1 0x0 KECCAK256 DUP4 SWAP1 MOD PUSH2 0x1A0 DUP7 ADD DUP2 SWAP1 MSTORE PUSH1 0x8 PUSH1 0x20 MSTORE8 POP PUSH1 0x21 PUSH1 0x0 KECCAK256 DUP4 SWAP1 MOD PUSH2 0x1C0 DUP7 ADD DUP2 SWAP1 MSTORE PUSH1 0x9 PUSH1 0x20 MSTORE8 POP PUSH1 0x21 PUSH1 0x0 SWAP1 DUP2 KECCAK256 DUP5 SWAP1 MOD PUSH2 0x1E0 DUP8 ADD DUP2 SWAP1 MSTORE SWAP1 PUSH1 0xA PUSH1 0x20 MSTORE8 POP POP PUSH1 0x21 PUSH1 0x0 KECCAK256 SWAP3 DUP4 MOD PUSH2 0x200 SWAP1 SWAP6 ADD SWAP5 SWAP1 SWAP5 MSTORE POP SWAP1 SWAP3 MSTORE POP POP JUMP JUMPDEST PUSH1 0x40 DUP1 MLOAD DUP1 DUP3 ADD SWAP1 SWAP2 MSTORE PUSH1 0x0 DUP1 DUP3 MSTORE PUSH1 0x20 DUP3 ADD MSTORE PUSH1 0x0 PUSH2 0x104B DUP4 DUP6 DUP9 DUP9 PUSH2 0x1FFF JUMP JUMPDEST SWAP1 POP PUSH1 0x0 PUSH2 0x105A DUP5 DUP7 DUP10 PUSH2 0x2270 JUMP JUMPDEST SWAP1 POP PUSH1 0x0 PUSH2 0x1068 DUP6 DUP10 PUSH2 0x292A JUMP JUMPDEST SWAP1 POP PUSH1 0x0 PUSH2 0x1076 DUP7 DUP11 PUSH2 0x2AA8 JUMP JUMPDEST PUSH2 0x1C0 DUP9 ADD MLOAD PUSH2 0x1E0 DUP10 ADD MLOAD SWAP2 SWAP3 POP SWAP1 PUSH2 0x108F DUP3 PUSH2 0x2CD9 JUMP JUMPDEST PUSH2 0x1098 DUP2 PUSH2 0x2CD9 JUMP JUMPDEST PUSH1 0x0 PUSH1 0x40 MLOAD DUP4 MLOAD DUP2 MSTORE PUSH1 0x20 DUP5 ADD MLOAD PUSH1 0x20 DUP3 ADD MSTORE DUP6 PUSH1 0x40 DUP3 ADD MSTORE PUSH1 0x40 DUP2 PUSH1 0x60 DUP4 PUSH1 0x7 GAS STATICCALL SWAP2 POP DUP8 MLOAD PUSH1 0x40 DUP3 ADD MSTORE PUSH1 0x20 DUP9 ADD MLOAD PUSH1 0x60 DUP3 ADD MSTORE PUSH1 0x40 DUP2 PUSH1 0x80 DUP4 PUSH1 0x6 GAS STATICCALL DUP3 AND SWAP2 POP DUP3 MLOAD PUSH1 0x40 DUP3 ADD MSTORE PUSH1 0x20 DUP4 ADD MLOAD PUSH1 0x60 DUP3 ADD MSTORE DUP5 PUSH1 0x80 DUP3 ADD MSTORE PUSH1 0x40 DUP1 DUP3 ADD PUSH1 0x60 PUSH1 0x40 DUP5 ADD PUSH1 0x7 GAS STATICCALL DUP3 AND SWAP2 POP PUSH1 0x40 DUP2 PUSH1 0x80 DUP4 PUSH1 0x6 GAS STATICCALL DUP3 AND SWAP2 POP DUP7 MLOAD PUSH1 0x40 DUP3 ADD MSTORE PUSH1 0x20 DUP8 ADD MLOAD PUSH1 0x60 DUP3 ADD MSTORE PUSH1 0x40 DUP9 PUSH1 0x80 DUP4 PUSH1 0x6 GAS STATICCALL DUP3 AND SWAP2 POP POP DUP1 PUSH2 0x11A7 JUMPI PUSH1 0x40 MLOAD PUSH3 0x461BCD PUSH1 0xE5 SHL DUP2 MSTORE PUSH1 0x20 PUSH1 0x4 DUP3 ADD MSTORE PUSH1 0x36 PUSH1 0x24 DUP3 ADD MSTORE PUSH32 0x636F6D707574655F6C696E656172697365645F6F70656E696E675F7465726D73 PUSH1 0x44 DUP3 ADD MSTORE PUSH32 0x2067726F7570206F7065726174696F6E73206661696C00000000000000000000 PUSH1 0x64 DUP3 ADD MSTORE PUSH1 0x84 ADD PUSH2 0x2CF JUMP JUMPDEST POP SWAP5 SWAP11 SWAP10 POP POP POP POP POP POP POP POP POP POP JUMP JUMPDEST PUSH1 0x40 DUP1 MLOAD DUP1 DUP3 ADD SWAP1 SWAP2 MSTORE PUSH1 0x0 DUP1 DUP3 MSTORE PUSH1 0x20 DUP3 ADD MSTORE PUSH1 0x40 DUP1 MLOAD PUSH1 0xA0 DUP2 ADD SWAP1 SWAP2 MSTORE PUSH2 0x300 DUP6 ADD MLOAD PUSH1 0x0 SWAP2 SWAP1 PUSH32 0x30644E72E131A029B85045B68181585D2833E84879B9709143E1F593F0000001 SWAP1 DUP4 SWAP1 PUSH2 0x120E SWAP1 DUP4 PUSH2 0x39BA JUMP JUMPDEST PUSH1 0xA0 DUP8 ADD MLOAD SWAP1 SWAP2 POP PUSH2 0x121F DUP2 PUSH2 0x2CD9 JUMP JUMPDEST DUP1 MLOAD DUP5 MSTORE PUSH1 0x20 DUP2 ADD MLOAD PUSH1 0x20 DUP6 ADD MSTORE DUP2 PUSH1 0x40 DUP6 ADD MSTORE PUSH1 0x40 DUP5 PUSH1 0x60 DUP7 PUSH1 0x7 GAS STATICCALL PUSH2 0x2E0 DUP11 ADD MLOAD PUSH1 0xC0 DUP10 ADD MLOAD SWAP2 SWAP7 POP SWAP1 SWAP2 POP DUP1 PUSH2 0x1258 DUP4 PUSH2 0x2CD9 JUMP JUMPDEST DUP3 MLOAD PUSH1 0x40 DUP8 ADD MSTORE PUSH1 0x20 DUP4 ADD MLOAD PUSH1 0x60 DUP8 ADD MSTORE DUP5 DUP5 DUP4 MULMOD PUSH1 0x80 DUP8 ADD MSTORE PUSH1 0x40 DUP1 DUP8 ADD PUSH1 0x60 DUP2 PUSH1 0x7 GAS STATICCALL SWAP7 POP PUSH1 0x40 DUP7 PUSH1 0x80 DUP9 PUSH1 0x6 GAS STATICCALL PUSH1 0xE0 DUP11 ADD MLOAD SWAP8 AND SWAP7 SWAP3 POP PUSH2 0x129D DUP4 PUSH2 0x2CD9 JUMP JUMPDEST DUP5 DUP3 DUP4 MULMOD SWAP2 POP DUP3 MLOAD PUSH1 0x40 DUP8 ADD MSTORE PUSH1 0x20 DUP4 ADD MLOAD PUSH1 0x60 DUP8 ADD MSTORE DUP5 DUP5 DUP4 MULMOD PUSH1 0x80 DUP8 ADD MSTORE PUSH1 0x40 DUP1 DUP8 ADD PUSH1 0x60 DUP2 PUSH1 0x7 GAS STATICCALL DUP8 AND SWAP7 POP PUSH1 0x40 DUP7 PUSH1 0x80 DUP9 PUSH1 0x6 GAS STATICCALL PUSH2 0x100 DUP11 ADD MLOAD SWAP8 AND SWAP7 SWAP3 POP PUSH2 0x12EB DUP4 PUSH2 0x2CD9 JUMP JUMPDEST DUP5 DUP2 DUP4 MULMOD SWAP2 POP DUP3 MLOAD PUSH1 0x40 DUP8 ADD MSTORE PUSH1 0x20 DUP4 ADD MLOAD PUSH1 0x60 DUP8 ADD MSTORE DUP5 DUP5 DUP4 MULMOD PUSH1 0x80 DUP8 ADD MSTORE PUSH1 0x40 DUP1 DUP8 ADD PUSH1 0x60 DUP2 PUSH1 0x7 GAS STATICCALL DUP8 AND SWAP7 POP PUSH1 0x40 DUP7 PUSH1 0x80 DUP9 PUSH1 0x6 GAS STATICCALL DUP8 AND SWAP7 POP DUP10 SWAP3 POP PUSH2 0x1335 DUP4 PUSH2 0x2CD9 JUMP JUMPDEST DUP10 MLOAD PUSH1 0x40 DUP8 ADD MSTORE PUSH1 0x20 DUP11 ADD MLOAD PUSH1 0x60 DUP8 ADD MSTORE PUSH1 0x40 DUP7 PUSH1 0x80 DUP9 PUSH1 0x6 GAS STATICCALL PUSH1 0xA0 DUP14 ADD MLOAD PUSH1 0xC0 DUP15 ADD MLOAD DUP12 MLOAD SWAP10 SWAP1 SWAP3 AND SWAP9 SWAP5 POP SWAP1 PUSH2 0x136D DUP6 PUSH2 0x2CD9 JUMP JUMPDEST DUP7 PUSH1 0x1 DUP4 ADDMOD SWAP2 POP DUP7 DUP3 DUP3 MULMOD SWAP4 POP DUP5 MLOAD PUSH1 0x40 DUP10 ADD MSTORE PUSH1 0x20 DUP6 ADD MLOAD PUSH1 0x60 DUP10 ADD MSTORE DUP4 PUSH1 0x80 DUP10 ADD MSTORE PUSH1 0x40 DUP1 DUP10 ADD PUSH1 0x60 PUSH1 0x40 DUP12 ADD PUSH1 0x7 GAS STATICCALL DUP10 AND SWAP9 POP PUSH1 0x40 DUP9 PUSH1 0x80 DUP11 PUSH1 0x6 GAS STATICCALL DUP10 AND SWAP9 POP DUP14 PUSH1 0xE0 ADD MLOAD SWAP1 POP DUP11 PUSH1 0x20 ADD MLOAD SWAP5 POP PUSH2 0x13C9 DUP6 PUSH2 0x2CD9 JUMP JUMPDEST DUP7 DUP3 DUP3 MULMOD SWAP4 POP DUP5 MLOAD PUSH1 0x40 DUP10 ADD MSTORE PUSH1 0x20 DUP6 ADD MLOAD PUSH1 0x60 DUP10 ADD MSTORE DUP4 PUSH1 0x80 DUP10 ADD MSTORE PUSH1 0x40 DUP1 DUP10 ADD PUSH1 0x60 PUSH1 0x40 DUP12 ADD PUSH1 0x7 GAS STATICCALL DUP10 AND SWAP9 POP PUSH1 0x40 DUP9 PUSH1 0x80 DUP11 PUSH1 0x6 GAS STATICCALL DUP10 AND SWAP9 POP DUP14 PUSH2 0x100 ADD MLOAD SWAP1 POP DUP11 PUSH1 0x40 ADD MLOAD SWAP5 POP PUSH2 0x141F DUP6 PUSH2 0x2CD9 JUMP JUMPDEST DUP7 DUP3 DUP3 MULMOD SWAP4 POP DUP5 MLOAD PUSH1 0x40 DUP10 ADD MSTORE PUSH1 0x20 DUP6 ADD MLOAD PUSH1 0x60 DUP10 ADD MSTORE DUP4 PUSH1 0x80 DUP10 ADD MSTORE PUSH1 0x40 DUP1 DUP10 ADD PUSH1 0x60 PUSH1 0x40 DUP12 ADD PUSH1 0x7 GAS STATICCALL DUP10 AND SWAP9 POP PUSH1 0x40 DUP9 PUSH1 0x80 DUP11 PUSH1 0x6 GAS STATICCALL DUP10 AND SWAP9 POP DUP14 PUSH2 0x120 ADD MLOAD SWAP1 POP DUP11 PUSH1 0x60 ADD MLOAD SWAP5 POP PUSH2 0x1475 DUP6 PUSH2 0x2CD9 JUMP JUMPDEST DUP7 DUP3 DUP3 MULMOD SWAP4 POP DUP5 MLOAD PUSH1 0x40 DUP10 ADD MSTORE PUSH1 0x20 DUP6 ADD MLOAD PUSH1 0x60 DUP10 ADD MSTORE DUP4 PUSH1 0x80 DUP10 ADD MSTORE PUSH1 0x40 DUP1 DUP10 ADD PUSH1 0x60 PUSH1 0x40 DUP12 ADD PUSH1 0x7 GAS STATICCALL DUP10 AND SWAP9 POP PUSH1 0x40 DUP9 PUSH1 0x80 DUP11 PUSH1 0x6 GAS STATICCALL DUP10 AND SWAP9 POP DUP14 PUSH2 0x140 ADD MLOAD SWAP4 POP DUP13 PUSH2 0x200 ADD MLOAD SWAP5 POP PUSH2 0x14CC DUP6 PUSH2 0x2CD9 JUMP JUMPDEST DUP5 MLOAD PUSH1 0x40 DUP10 ADD MSTORE PUSH1 0x20 DUP6 ADD MLOAD PUSH1 0x60 DUP10 ADD MSTORE DUP4 PUSH1 0x80 DUP10 ADD MSTORE PUSH1 0x40 DUP1 DUP10 ADD PUSH1 0x60 PUSH1 0x40 DUP12 ADD PUSH1 0x7 GAS STATICCALL DUP10 AND SWAP9 POP PUSH1 0x40 DUP9 PUSH1 0x80 DUP11 PUSH1 0x6 GAS STATICCALL DUP10 AND SWAP9 POP DUP14 PUSH2 0x160 ADD MLOAD SWAP4 POP DUP13 PUSH2 0x220 ADD MLOAD SWAP5 POP PUSH2 0x151D DUP6 PUSH2 0x2CD9 JUMP JUMPDEST DUP5 MLOAD PUSH1 0x40 DUP10 ADD MSTORE PUSH1 0x20 DUP6 ADD MLOAD PUSH1 0x60 DUP10 ADD MSTORE DUP4 PUSH1 0x80 DUP10 ADD MSTORE PUSH1 0x40 DUP1 DUP10 ADD PUSH1 0x60 PUSH1 0x40 DUP12 ADD PUSH1 0x7 GAS STATICCALL DUP10 AND SWAP9 POP PUSH1 0x40 DUP9 PUSH1 0x80 DUP11 PUSH1 0x6 GAS STATICCALL DUP10 AND SWAP9 POP DUP14 PUSH2 0x180 ADD MLOAD SWAP4 POP DUP13 PUSH2 0x240 ADD MLOAD SWAP5 POP PUSH2 0x156E DUP6 PUSH2 0x2CD9 JUMP JUMPDEST DUP5 MLOAD PUSH1 0x40 DUP10 ADD MSTORE PUSH1 0x20 DUP6 ADD MLOAD PUSH1 0x60 DUP10 ADD MSTORE DUP4 PUSH1 0x80 DUP10 ADD MSTORE PUSH1 0x40 DUP1 DUP10 ADD PUSH1 0x60 PUSH1 0x40 DUP12 ADD PUSH1 0x7 GAS STATICCALL DUP10 AND SWAP9 POP PUSH1 0x40 DUP9 PUSH1 0x80 DUP11 PUSH1 0x6 GAS STATICCALL DUP10 AND SWAP9 POP DUP14 PUSH2 0x1A0 ADD MLOAD SWAP4 POP DUP13 PUSH2 0x180 ADD MLOAD SWAP5 POP PUSH2 0x15BF DUP6 PUSH2 0x2CD9 JUMP JUMPDEST DUP5 MLOAD PUSH1 0x40 DUP10 ADD MSTORE PUSH1 0x20 DUP6 ADD MLOAD PUSH1 0x60 DUP10 ADD MSTORE DUP4 PUSH1 0x80 DUP10 ADD MSTORE PUSH1 0x40 DUP1 DUP10 ADD PUSH1 0x60 PUSH1 0x40 DUP12 ADD PUSH1 0x7 GAS STATICCALL DUP10 AND SWAP9 POP PUSH1 0x40 DUP9 PUSH1 0x80 DUP11 PUSH1 0x6 GAS STATICCALL PUSH1 0x40 DUP1 MLOAD DUP1 DUP3 ADD SWAP1 SWAP2 MSTORE PUSH1 0x0 DUP1 DUP3 MSTORE PUSH1 0x20 DUP3 ADD MSTORE SWAP10 AND SWAP9 DUP15 PUSH2 0x1C0 ADD MLOAD SWAP5 POP DUP14 PUSH2 0x1A0 ADD MLOAD SWAP6 POP PUSH2 0x1623 DUP7 PUSH2 0x2CD9 JUMP JUMPDEST DUP6 MLOAD PUSH1 0x40 DUP11 ADD MSTORE PUSH1 0x20 DUP7 ADD MLOAD PUSH1 0x60 DUP11 ADD MSTORE DUP5 PUSH1 0x80 DUP11 ADD MSTORE PUSH1 0x40 DUP1 DUP11 ADD PUSH1 0x60 PUSH1 0x40 DUP13 ADD PUSH1 0x7 GAS STATICCALL DUP11 AND SWAP10 POP PUSH1 0x40 DUP2 PUSH1 0x80 DUP12 PUSH1 0x6 GAS STATICCALL DUP11 AND SWAP10 POP DUP10 PUSH2 0x16CE JUMPI PUSH1 0x40 MLOAD PUSH3 0x461BCD PUSH1 0xE5 SHL DUP2 MSTORE PUSH1 0x20 PUSH1 0x4 DUP3 ADD MSTORE PUSH1 0x37 PUSH1 0x24 DUP3 ADD MSTORE PUSH32 0x636F6D707574655F62617463685F6F70656E696E675F636F6D6D69746D656E74 PUSH1 0x44 DUP3 ADD MSTORE PUSH32 0x2067726F7570206F7065726174696F6E73206572726F72000000000000000000 PUSH1 0x64 DUP3 ADD MSTORE PUSH1 0x84 ADD PUSH2 0x2CF JUMP JUMPDEST SWAP15 SWAP14 POP POP POP POP POP POP POP POP POP POP POP POP POP POP JUMP JUMPDEST PUSH1 0xC0 DUP2 ADD MLOAD PUSH2 0x120 DUP4 ADD MLOAD PUSH1 0x0 SWAP2 PUSH32 0x30644E72E131A029B85045B68181585D2833E84879B9709143E1F593F0000001 SWAP2 DUP4 SWAP2 SWAP1 DUP4 DUP1 DUP3 DUP5 MULMOD DUP5 ADDMOD SWAP3 POP DUP6 PUSH1 0xE0 ADD MLOAD SWAP2 POP DUP7 PUSH2 0x140 ADD MLOAD SWAP1 POP DUP4 DUP5 DUP3 DUP5 MULMOD DUP5 ADDMOD SWAP3 POP DUP6 PUSH2 0x100 ADD MLOAD SWAP2 POP DUP7 PUSH2 0x160 ADD MLOAD SWAP1 POP DUP4 DUP5 DUP3 DUP5 MULMOD DUP5 ADDMOD SWAP3 POP DUP6 PUSH2 0x120 ADD MLOAD SWAP2 POP DUP7 PUSH2 0x180 ADD MLOAD SWAP1 POP DUP4 DUP5 DUP3 DUP5 MULMOD DUP5 ADDMOD SWAP3 POP DUP6 PUSH2 0x140 ADD MLOAD SWAP2 POP DUP7 PUSH2 0x1A0 ADD MLOAD SWAP1 POP DUP4 DUP5 DUP3 DUP5 MULMOD DUP5 ADDMOD SWAP3 POP DUP6 PUSH2 0x160 ADD MLOAD SWAP2 POP DUP7 PUSH2 0x1C0 ADD MLOAD SWAP1 POP DUP4 DUP5 DUP3 DUP5 MULMOD DUP5 ADDMOD SWAP3 POP DUP6 PUSH2 0x180 ADD MLOAD SWAP2 POP DUP7 PUSH2 0x1E0 ADD MLOAD SWAP1 POP DUP4 DUP5 DUP3 DUP5 MULMOD DUP5 ADDMOD SWAP3 POP DUP6 PUSH2 0x1A0 ADD MLOAD SWAP2 POP DUP7 PUSH2 0x200 ADD MLOAD SWAP1 POP DUP4 DUP5 DUP3 DUP5 MULMOD DUP5 ADDMOD SWAP3 POP DUP6 PUSH2 0x1C0 ADD MLOAD SWAP2 POP DUP7 PUSH2 0x220 ADD MLOAD SWAP1 POP DUP4 DUP5 DUP3 DUP5 MULMOD DUP5 ADDMOD SWAP3 POP DUP6 PUSH2 0x1E0 ADD MLOAD SWAP2 POP DUP7 PUSH2 0x240 ADD MLOAD SWAP1 POP DUP4 DUP5 DUP3 DUP5 MULMOD DUP5 ADDMOD SWAP3 POP DUP7 PUSH2 0x380 ADD MLOAD SWAP1 POP DUP4 DUP2 DUP6 SUB DUP5 ADDMOD SWAP3 POP DUP6 PUSH1 0xC0 ADD MLOAD SWAP2 POP DUP7 PUSH2 0x280 ADD MLOAD SWAP1 POP PUSH1 0x0 DUP5 DUP3 DUP5 MULMOD SWAP1 POP DUP7 PUSH1 0xE0 ADD MLOAD SWAP3 POP DUP8 PUSH2 0x2A0 ADD MLOAD SWAP2 POP DUP5 DUP6 DUP4 DUP6 MULMOD DUP3 ADDMOD SWAP1 POP DUP7 PUSH2 0x100 ADD MLOAD SWAP3 POP DUP8 PUSH2 0x2C0 ADD MLOAD SWAP2 POP DUP5 DUP6 DUP4 DUP6 MULMOD DUP3 ADDMOD SWAP1 POP DUP7 PUSH2 0x120 ADD MLOAD SWAP3 POP DUP8 PUSH2 0x2E0 ADD MLOAD SWAP2 POP DUP5 DUP6 DUP4 DUP6 MULMOD DUP3 ADDMOD SWAP1 POP DUP8 PUSH2 0x260 ADD MLOAD SWAP3 POP DUP5 DUP4 DUP3 ADDMOD SWAP1 POP DUP7 PUSH1 0xA0 ADD MLOAD SWAP3 POP DUP5 DUP4 DUP3 MULMOD SWAP1 POP DUP5 DUP2 DUP6 ADDMOD SWAP6 POP POP POP POP POP POP JUMPDEST SWAP3 SWAP2 POP POP JUMP JUMPDEST PUSH1 0xA0 DUP4 ADD MLOAD PUSH1 0x40 DUP1 MLOAD DUP1 DUP3 ADD SWAP1 SWAP2 MSTORE PUSH1 0x0 DUP1 DUP3 MSTORE PUSH1 0x20 DUP3 ADD DUP2 SWAP1 MSTORE SWAP2 SWAP1 DUP3 SWAP1 PUSH32 0x30644E72E131A029B85045B68181585D2833E84879B9709143E1F593F0000001 SWAP1 PUSH2 0x320 DUP8 ADD MLOAD PUSH2 0x300 DUP9 ADD MLOAD PUSH2 0x18F0 DUP2 PUSH2 0x2CD9 JUMP JUMPDEST PUSH2 0x18F9 DUP3 PUSH2 0x2CD9 JUMP JUMPDEST PUSH1 0x40 DUP1 DUP12 ADD MLOAD SWAP1 DUP10 ADD MLOAD DUP6 DUP3 DUP3 MULMOD SWAP1 POP DUP6 DUP9 DUP3 MULMOD SWAP1 POP DUP13 DUP7 SUB SWAP13 POP PUSH1 0x40 MLOAD DUP15 MLOAD DUP2 MSTORE PUSH1 0x20 DUP16 ADD MLOAD PUSH1 0x20 DUP3 ADD MSTORE DUP4 MLOAD PUSH1 0x40 DUP3 ADD MSTORE PUSH1 0x20 DUP5 ADD MLOAD PUSH1 0x60 DUP3 ADD MSTORE DUP3 PUSH1 0x80 DUP3 ADD MSTORE PUSH1 0x40 DUP1 DUP3 ADD PUSH1 0x60 PUSH1 0x40 DUP5 ADD PUSH1 0x7 GAS STATICCALL SWAP8 POP PUSH1 0x40 DUP2 PUSH1 0x80 DUP4 PUSH1 0x6 GAS STATICCALL DUP9 AND SWAP8 POP DUP5 MLOAD PUSH1 0x40 DUP3 ADD MSTORE PUSH1 0x20 DUP6 ADD MLOAD PUSH1 0x60 DUP3 ADD MSTORE DUP2 PUSH1 0x80 DUP3 ADD MSTORE PUSH1 0x40 DUP1 DUP3 ADD PUSH1 0x60 PUSH1 0x40 DUP5 ADD PUSH1 0x7 GAS STATICCALL DUP9 AND SWAP8 POP PUSH1 0x40 DUP2 PUSH1 0x80 DUP4 PUSH1 0x6 GAS STATICCALL DUP9 AND SWAP8 POP PUSH1 0x1 PUSH1 0x40 DUP3 ADD MSTORE PUSH1 0x2 PUSH1 0x60 DUP3 ADD MSTORE DUP14 PUSH1 0x80 DUP3 ADD MSTORE PUSH1 0x40 DUP1 DUP3 ADD PUSH1 0x60 PUSH1 0x40 DUP5 ADD PUSH1 0x7 GAS STATICCALL DUP9 AND SWAP8 POP PUSH1 0x40 DUP7 PUSH1 0x80 DUP4 PUSH1 0x6 GAS STATICCALL DUP9 AND SWAP8 POP POP POP POP PUSH2 0x19E8 PUSH1 0x40 MLOAD DUP1 PUSH1 0x40 ADD PUSH1 0x40 MSTORE DUP1 PUSH1 0x0 DUP2 MSTORE PUSH1 0x20 ADD PUSH1 0x0 DUP2 MSTORE POP SWAP1 JUMP JUMPDEST PUSH1 0x40 MLOAD DUP3 MLOAD DUP2 MSTORE PUSH1 0x20 DUP4 ADD MLOAD PUSH1 0x20 DUP3 ADD MSTORE DUP4 MLOAD PUSH1 0x40 DUP3 ADD MSTORE PUSH1 0x20 DUP5 ADD MLOAD PUSH1 0x60 DUP3 ADD MSTORE DUP8 PUSH1 0x80 DUP3 ADD MSTORE PUSH1 0x40 DUP1 DUP3 ADD PUSH1 0x60 PUSH1 0x40 DUP5 ADD PUSH1 0x7 GAS STATICCALL DUP8 AND SWAP7 POP PUSH1 0x40 DUP3 PUSH1 0x80 DUP4 PUSH1 0x6 GAS STATICCALL DUP8 AND SWAP7 POP POP PUSH1 0x0 PUSH32 0x30644E72E131A029B85045B68181585D97816A916871CA8D3C208C16D87CFD47 SWAP1 POP PUSH1 0x20 DUP3 ADD MLOAD DUP2 SUB PUSH1 0x20 DUP4 ADD MSTORE DUP10 PUSH2 0x280 ADD MLOAD ISZERO PUSH2 0x1B18 JUMPI PUSH2 0x340 DUP12 ADD MLOAD PUSH2 0x360 DUP13 ADD MLOAD PUSH2 0x1A83 DUP3 PUSH2 0x2CD9 JUMP JUMPDEST PUSH2 0x1A8C DUP2 PUSH2 0x2CD9 JUMP JUMPDEST PUSH1 0x40 MLOAD DUP3 MLOAD DUP2 MSTORE PUSH1 0x20 DUP4 ADD MLOAD PUSH1 0x20 DUP3 ADD MSTORE DUP9 DUP12 DUP13 MULMOD PUSH1 0x40 DUP3 ADD MSTORE PUSH1 0x40 PUSH1 0x60 DUP3 ADD PUSH1 0x60 DUP4 PUSH1 0x7 GAS STATICCALL DUP11 AND SWAP10 POP DUP2 MLOAD DUP2 MSTORE PUSH1 0x20 DUP3 ADD MLOAD PUSH1 0x20 DUP3 ADD MSTORE PUSH1 0x40 DUP2 PUSH1 0x60 DUP4 PUSH1 0x7 GAS STATICCALL DUP11 AND SWAP10 POP DUP8 MLOAD PUSH1 0xA0 DUP3 ADD MSTORE PUSH1 0x20 DUP9 ADD MLOAD PUSH1 0xC0 DUP3 ADD MSTORE PUSH1 0x40 DUP9 PUSH1 0x80 PUSH1 0x60 DUP5 ADD PUSH1 0x6 GAS STATICCALL DUP11 AND SWAP10 POP DUP5 MLOAD PUSH1 0x40 DUP3 ADD MSTORE PUSH1 0x20 DUP6 ADD MLOAD PUSH1 0x60 DUP3 ADD MSTORE PUSH1 0x40 DUP6 PUSH1 0x80 DUP4 PUSH1 0x6 GAS STATICCALL DUP11 AND SWAP10 POP POP POP POP JUMPDEST DUP7 PUSH2 0x1B8B JUMPI PUSH1 0x40 MLOAD PUSH3 0x461BCD PUSH1 0xE5 SHL DUP2 MSTORE PUSH1 0x20 PUSH1 0x4 DUP3 ADD MSTORE PUSH1 0x2B PUSH1 0x24 DUP3 ADD MSTORE PUSH32 0x706572666F726D5F70616972696E67204731206F7065726174696F6E73207072 PUSH1 0x44 DUP3 ADD MSTORE PUSH32 0x65616D626C65206661696C000000000000000000000000000000000000000000 PUSH1 0x64 DUP3 ADD MSTORE PUSH1 0x84 ADD PUSH2 0x2CF JUMP JUMPDEST PUSH2 0x16CE DUP6 PUSH2 0x1B97 PUSH2 0x2DA0 JUMP JUMPDEST DUP5 DUP14 PUSH2 0x2C0 ADD MLOAD PUSH2 0x2E71 JUMP JUMPDEST PUSH1 0x0 DUP1 PUSH1 0x0 DUP5 PUSH1 0x80 ADD MLOAD SWAP1 POP PUSH1 0x0 DUP5 PUSH1 0x40 ADD MLOAD SWAP1 POP PUSH1 0x0 PUSH1 0x20 DUP7 PUSH1 0x20 ADD MLOAD PUSH1 0x20 PUSH2 0x1BCD SWAP2 SWAP1 PUSH2 0x39A3 JUMP JUMPDEST PUSH2 0x1BD7 SWAP2 SWAP1 PUSH2 0x39BA JUMP JUMPDEST PUSH1 0x60 DUP9 ADD MLOAD SWAP1 SWAP2 POP PUSH1 0x0 SWAP1 DUP1 PUSH1 0x1 DUP1 PUSH32 0x30644E72E131A029B85045B68181585D2833E84879B9709143E1F593F0000001 DUP2 DUP2 PUSH1 0x5 DUP7 MULMOD SWAP6 POP DUP2 PUSH1 0x7 DUP7 MULMOD SWAP5 POP PUSH1 0x24 PUSH1 0x4 CALLDATALOAD ADD SWAP7 POP DUP7 DUP9 ADD SWAP8 POP JUMPDEST DUP8 DUP8 LT ISZERO PUSH2 0x1C87 JUMPI DUP7 CALLDATALOAD DUP11 DUP2 ADD DUP8 ADD DUP1 DUP8 ADD DUP5 DUP13 DUP11 MULMOD SWAP9 POP DUP5 DUP13 DUP10 MULMOD SWAP8 POP PUSH1 0x20 DUP11 ADD CALLDATALOAD DUP14 DUP2 ADD DUP11 ADD DUP7 DUP11 DUP3 ADD DUP9 DUP11 DUP7 MULMOD MULMOD SWAP8 POP DUP7 DUP10 DUP9 DUP7 DUP5 MULMOD MULMOD SWAP9 POP POP DUP6 DUP14 DUP12 MULMOD SWAP10 POP DUP6 DUP14 DUP11 MULMOD SWAP9 POP DUP6 DUP2 LT DUP7 DUP6 LT AND DUP6 AND SWAP5 POP POP POP POP POP PUSH1 0x40 DUP8 ADD SWAP7 POP PUSH2 0x1C24 JUMP JUMPDEST PUSH1 0x20 DUP9 ADD SWAP8 POP JUMPDEST DUP8 DUP8 LT ISZERO PUSH2 0x1CCF JUMPI DUP7 CALLDATALOAD DUP3 DUP2 LT DUP3 AND SWAP2 POP DUP3 DUP12 DUP3 ADDMOD SWAP1 POP DUP3 DUP2 DUP9 ADD DUP7 MULMOD SWAP5 POP DUP3 DUP2 DUP8 DUP10 ADD ADD DUP6 MULMOD SWAP4 POP POP DUP2 DUP10 DUP8 MULMOD SWAP6 POP DUP2 DUP10 DUP7 MULMOD SWAP5 POP PUSH1 0x20 DUP8 ADD SWAP7 POP PUSH2 0x1C8E JUMP JUMPDEST DUP1 PUSH2 0x1D42 JUMPI PUSH1 0x40 MLOAD PUSH3 0x461BCD PUSH1 0xE5 SHL DUP2 MSTORE PUSH1 0x20 PUSH1 0x4 DUP3 ADD MSTORE PUSH1 0x2E PUSH1 0x24 DUP3 ADD MSTORE PUSH32 0x7075626C696320696E70757473206172652067726561746572207468616E2063 PUSH1 0x44 DUP3 ADD MSTORE PUSH32 0x697263756974206D6F64756C7573000000000000000000000000000000000000 PUSH1 0x64 DUP3 ADD MSTORE PUSH1 0x84 ADD PUSH2 0x2CF JUMP JUMPDEST POP SWAP2 SWAP13 SWAP1 SWAP12 POP SWAP10 POP POP POP POP POP POP POP POP POP POP JUMP JUMPDEST PUSH1 0x0 DUP1 PUSH1 0x0 DUP1 PUSH1 0x0 DUP1 PUSH32 0x30644E72E131A029B85045B68181585D2833E84879B9709143E1F593F0000001 SWAP1 POP PUSH1 0x0 PUSH2 0x1D92 DUP9 DUP11 PUSH1 0x0 ADD MLOAD DUP5 PUSH2 0x2F65 JUMP JUMPDEST PUSH2 0x2E0 DUP11 ADD DUP2 SWAP1 MSTORE SWAP1 POP DUP2 PUSH32 0xFFFFFFFFFFFFFFFFFFFFFFFFFFFFFFFFFFFFFFFFFFFFFFFFFFFFFFFFFFFFFFFF DUP2 ADD DUP3 ADDMOD PUSH1 0x80 DUP11 ADD MLOAD PUSH1 0x60 DUP12 ADD MLOAD SWAP2 SWAP3 POP SWAP1 DUP2 SWAP1 PUSH1 0x0 SWAP1 DUP2 DUP1 DUP14 DUP9 DUP7 DUP2 SUB DUP3 ADDMOD SWAP5 POP DUP9 DUP8 DUP8 MULMOD SWAP6 POP DUP9 DUP10 DUP8 DUP12 SUB DUP4 ADDMOD DUP7 MULMOD SWAP5 POP DUP9 DUP8 DUP8 MULMOD SWAP6 POP DUP9 DUP10 DUP8 DUP12 SUB DUP4 ADDMOD DUP7 MULMOD SWAP5 POP DUP9 DUP8 DUP8 MULMOD SWAP6 POP DUP9 DUP10 DUP8 DUP12 SUB DUP4 ADDMOD DUP7 MULMOD SWAP5 POP DUP16 PUSH1 0x40 ADD MLOAD SWAP6 POP PUSH1 0x0 DUP10 DUP6 DUP11 MULMOD SWAP1 POP DUP10 PUSH1 0x1 DUP12 SUB DUP4 ADDMOD SWAP4 POP DUP10 DUP8 DUP9 MULMOD SWAP8 POP DUP10 DUP9 DUP10 MULMOD SWAP8 POP DUP10 DUP8 DUP10 MULMOD SWAP8 POP DUP10 PUSH1 0x1 DUP12 SUB DUP12 DUP5 DUP12 MULMOD ADDMOD SWAP9 SWAP15 POP SWAP5 SWAP13 POP SWAP4 SWAP11 POP SWAP1 SWAP9 POP SWAP5 SWAP7 POP POP POP POP POP POP POP SWAP3 SWAP6 POP SWAP3 SWAP6 SWAP1 SWAP4 POP JUMP JUMPDEST PUSH1 0x0 DUP1 PUSH1 0x0 DUP1 PUSH1 0x0 DUP1 PUSH32 0x30644E72E131A029B85045B68181585D2833E84879B9709143E1F593F0000001 SWAP1 POP PUSH1 0x0 PUSH1 0x1 SWAP1 POP PUSH1 0x40 MLOAD SWAP3 POP PUSH2 0x200 DUP4 ADD PUSH1 0x40 MSTORE DUP13 DUP4 MSTORE DUP11 PUSH1 0x20 DUP5 ADD MSTORE DUP9 PUSH1 0x40 DUP5 ADD MSTORE DUP8 PUSH1 0x60 DUP5 ADD MSTORE DUP1 PUSH1 0x80 DUP5 ADD MSTORE DUP2 DUP4 MLOAD DUP3 MULMOD SWAP1 POP DUP1 PUSH1 0xA0 DUP5 ADD MSTORE DUP2 PUSH1 0x20 DUP5 ADD MLOAD DUP3 MULMOD SWAP1 POP DUP1 PUSH1 0xC0 DUP5 ADD MSTORE DUP2 PUSH1 0x40 DUP5 ADD MLOAD DUP3 MULMOD SWAP1 POP DUP1 PUSH1 0xE0 DUP5 ADD MSTORE DUP2 PUSH1 0x60 DUP5 ADD MLOAD DUP3 MULMOD SWAP1 POP PUSH2 0x1F00 DUP2 PUSH2 0x2FA1 JUMP JUMPDEST SWAP1 POP DUP2 PUSH1 0xE0 DUP5 ADD MLOAD DUP3 MULMOD DUP3 PUSH1 0x60 DUP6 ADD MLOAD DUP4 MULMOD SWAP2 POP DUP1 PUSH1 0x60 DUP6 ADD MSTORE DUP3 PUSH1 0xC0 DUP6 ADD MLOAD DUP4 MULMOD SWAP1 POP DUP3 PUSH1 0x40 DUP6 ADD MLOAD DUP4 MULMOD SWAP2 POP DUP1 PUSH1 0x40 DUP6 ADD MSTORE DUP3 PUSH1 0xA0 DUP6 ADD MLOAD DUP4 MULMOD SWAP1 POP DUP3 PUSH1 0x20 DUP6 ADD MLOAD DUP4 MULMOD SWAP2 POP DUP1 PUSH1 0x20 DUP6 ADD MSTORE DUP3 PUSH1 0x80 DUP6 ADD MLOAD DUP4 MULMOD SWAP1 POP DUP3 DUP5 MLOAD DUP4 MULMOD DUP2 DUP6 MSTORE SWAP2 POP DUP3 SWAP1 DUP16 MULMOD SWAP6 POP DUP2 PUSH1 0x20 DUP5 ADD MLOAD DUP14 MULMOD SWAP7 POP DUP2 PUSH1 0x40 DUP5 ADD MLOAD DUP12 MULMOD SWAP5 POP DUP2 PUSH1 0x60 DUP5 ADD MLOAD DUP12 MULMOD SWAP4 POP POP POP POP SWAP8 POP SWAP8 POP SWAP8 POP SWAP8 SWAP4 POP POP POP POP JUMP JUMPDEST PUSH1 0x0 DUP1 PUSH2 0x1FA7 DUP8 DUP8 DUP8 DUP8 DUP8 PUSH2 0x305C JUMP JUMPDEST SWAP1 POP PUSH1 0x0 PUSH2 0x1FB5 DUP8 DUP6 PUSH2 0x3178 JUMP JUMPDEST SWAP1 POP PUSH1 0x0 PUSH2 0x1FC3 DUP9 DUP7 PUSH2 0x3215 JUMP JUMPDEST SWAP1 POP PUSH1 0x0 PUSH32 0x30644E72E131A029B85045B68181585D2833E84879B9709143E1F593F0000001 DUP1 DUP1 DUP5 DUP7 ADDMOD DUP7 ADDMOD SWAP13 SWAP12 POP POP POP POP POP POP POP POP POP POP POP POP JUMP JUMPDEST PUSH1 0x40 DUP1 MLOAD DUP1 DUP3 ADD SWAP1 SWAP2 MSTORE PUSH1 0x0 DUP1 DUP3 MSTORE PUSH1 0x20 DUP3 ADD MSTORE PUSH1 0x60 DUP4 ADD MLOAD PUSH1 0x40 DUP5 ADD MLOAD PUSH1 0x80 DUP6 ADD MLOAD PUSH2 0x120 DUP9 ADD MLOAD PUSH2 0x1A0 DUP10 ADD MLOAD PUSH32 0x30644E72E131A029B85045B68181585D2833E84879B9709143E1F593F0000001 SWAP2 PUSH1 0x0 SWAP2 DUP3 SWAP2 SWAP1 DUP5 DUP7 DUP4 ADDMOD DUP6 DUP2 DUP8 DUP11 DUP13 MULMOD ADDMOD SWAP5 POP DUP6 DUP2 DUP8 DUP12 DUP6 MULMOD ADDMOD SWAP4 POP POP POP POP PUSH1 0x0 DUP12 PUSH2 0x140 ADD MLOAD SWAP1 POP PUSH1 0x0 DUP13 PUSH2 0x1C0 ADD MLOAD SWAP1 POP DUP5 DUP7 DUP4 ADDMOD DUP6 DUP7 DUP3 DUP9 DUP13 DUP11 PUSH1 0x5 DUP15 MULMOD MULMOD ADDMOD DUP7 MULMOD SWAP5 POP DUP6 DUP7 DUP3 DUP9 DUP13 DUP7 MULMOD ADDMOD DUP6 MULMOD SWAP4 POP POP POP POP PUSH1 0x0 DUP12 PUSH2 0x160 ADD MLOAD SWAP1 POP PUSH1 0x0 DUP13 PUSH2 0x1E0 ADD MLOAD SWAP1 POP DUP5 DUP7 DUP4 ADDMOD DUP6 DUP7 DUP3 DUP9 DUP13 DUP11 PUSH1 0x6 DUP15 MULMOD MULMOD ADDMOD DUP7 MULMOD SWAP5 POP DUP6 DUP7 DUP3 DUP9 DUP13 DUP7 MULMOD ADDMOD DUP6 MULMOD SWAP4 POP POP POP POP PUSH1 0x0 DUP12 PUSH2 0x180 ADD MLOAD SWAP1 POP DUP4 DUP5 DUP3 DUP7 DUP9 DUP9 DUP13 DUP11 PUSH1 0x7 DUP15 MULMOD MULMOD ADDMOD ADDMOD DUP5 MULMOD SWAP3 POP POP PUSH1 0x0 DUP10 PUSH1 0x0 ADD MLOAD SWAP1 POP PUSH1 0x0 DUP11 PUSH1 0x20 ADD MLOAD SWAP1 POP PUSH1 0x0 DUP12 PUSH1 0xA0 ADD MLOAD SWAP1 POP PUSH1 0x0 DUP15 PUSH2 0x260 ADD MLOAD SWAP1 POP PUSH1 0x0 DUP13 SWAP1 POP DUP8 DUP6 DUP9 MULMOD SWAP7 POP DUP8 DUP12 DUP10 DUP8 DUP12 DUP7 DUP12 MULMOD MULMOD DUP11 SUB MULMOD SWAP6 POP DUP8 DUP5 DUP10 DUP7 DUP9 MULMOD MULMOD SWAP5 POP DUP8 DUP4 DUP10 DUP11 DUP9 DUP6 MULMOD DUP11 ADDMOD ADDMOD SWAP7 POP DUP8 DUP5 DUP7 MULMOD DUP15 MSTORE POP POP POP PUSH1 0x80 DUP14 ADD MLOAD PUSH2 0x260 DUP14 ADD MLOAD PUSH1 0x40 DUP1 MLOAD DUP1 DUP3 ADD SWAP1 SWAP2 MSTORE PUSH1 0x0 DUP1 DUP3 MSTORE PUSH1 0x20 DUP3 ADD MSTORE SWAP2 SWAP4 POP SWAP2 POP PUSH2 0x2184 DUP4 PUSH2 0x2CD9 JUMP JUMPDEST PUSH2 0x218D DUP3 PUSH2 0x2CD9 JUMP JUMPDEST PUSH1 0x0 PUSH1 0x40 MLOAD DUP5 MLOAD DUP2 MSTORE PUSH1 0x20 DUP6 ADD MLOAD PUSH1 0x20 DUP3 ADD MSTORE DUP7 PUSH1 0x40 DUP3 ADD MSTORE PUSH1 0x40 DUP2 PUSH1 0x60 DUP4 PUSH1 0x7 GAS STATICCALL SWAP2 POP DUP4 MLOAD PUSH1 0x40 DUP3 ADD MSTORE PUSH1 0x20 DUP5 ADD MLOAD PUSH1 0x60 DUP3 ADD MSTORE DUP6 PUSH1 0x80 DUP3 ADD MSTORE PUSH1 0x40 DUP1 DUP3 ADD PUSH1 0x60 PUSH1 0x40 DUP5 ADD PUSH1 0x7 GAS STATICCALL DUP3 AND SWAP2 POP PUSH1 0x40 DUP4 PUSH1 0x80 DUP4 PUSH1 0x6 GAS STATICCALL DUP3 AND SWAP2 POP POP DUP1 PUSH2 0x225E JUMPI PUSH1 0x40 MLOAD PUSH3 0x461BCD PUSH1 0xE5 SHL DUP2 MSTORE PUSH1 0x20 PUSH1 0x4 DUP3 ADD MSTORE PUSH1 0x3D PUSH1 0x24 DUP3 ADD MSTORE PUSH32 0x636F6D707574655F6772616E645F70726F647563745F6F70656E696E675F7363 PUSH1 0x44 DUP3 ADD MSTORE PUSH32 0x616C61722067726F7570206F7065726174696F6E73206661696C757265000000 PUSH1 0x64 DUP3 ADD MSTORE PUSH1 0x84 ADD PUSH2 0x2CF JUMP JUMPDEST POP SWAP14 SWAP13 POP POP POP POP POP POP POP POP POP POP POP POP POP JUMP JUMPDEST PUSH1 0x40 DUP1 MLOAD DUP1 DUP3 ADD SWAP1 SWAP2 MSTORE PUSH1 0x0 DUP1 DUP3 MSTORE PUSH1 0x20 DUP3 ADD MSTORE PUSH2 0x200 DUP5 ADD MLOAD PUSH2 0x220 DUP6 ADD MLOAD DUP4 MLOAD PUSH1 0x20 DUP6 ADD MLOAD PUSH1 0x40 DUP1 MLOAD PUSH1 0xA0 DUP2 ADD SWAP1 SWAP2 MSTORE PUSH2 0x180 DUP10 ADD MLOAD PUSH2 0x2E0 DUP11 ADD MLOAD DUP5 SWAP4 SWAP3 PUSH32 0x30644E72E131A029B85045B68181585D2833E84879B9709143E1F593F0000001 SWAP3 PUSH1 0x0 SWAP3 DUP4 SWAP2 SWAP1 DUP6 DUP1 PUSH1 0x4 DUP5 MULMOD DUP8 SUB DUP3 ADDMOD SWAP3 POP POP POP PUSH1 0x0 DUP14 PUSH2 0x120 ADD MLOAD SWAP1 POP DUP1 SWAP4 POP DUP5 DUP9 DUP6 MULMOD SWAP4 POP DUP5 DUP11 DUP6 MULMOD SWAP4 POP DUP5 DUP7 DUP9 MULMOD SWAP7 POP DUP5 DUP7 DUP9 MULMOD SWAP7 POP DUP5 DUP7 DUP9 MULMOD SWAP7 POP DUP5 DUP3 DUP4 MULMOD DUP6 DUP11 DUP3 MULMOD SWAP1 POP DUP6 DUP9 DUP3 MULMOD SWAP1 POP DUP6 DUP2 DUP7 ADDMOD PUSH1 0xA0 DUP16 ADD MLOAD SWAP1 SWAP6 POP SWAP1 POP PUSH2 0x2339 DUP2 PUSH2 0x2CD9 JUMP JUMPDEST PUSH1 0x0 PUSH1 0x40 MLOAD DUP3 MLOAD DUP2 MSTORE PUSH1 0x20 DUP4 ADD MLOAD PUSH1 0x20 DUP3 ADD MSTORE DUP7 PUSH1 0x40 DUP3 ADD MSTORE PUSH1 0x40 DUP7 PUSH1 0x60 DUP4 PUSH1 0x7 GAS STATICCALL SWAP2 POP POP DUP1 PUSH2 0x23AC JUMPI PUSH1 0x40 MLOAD PUSH3 0x461BCD PUSH1 0xE5 SHL DUP2 MSTORE PUSH1 0x20 PUSH1 0x4 DUP3 ADD MSTORE PUSH1 0x1F PUSH1 0x24 DUP3 ADD MSTORE PUSH32 0x473120706F696E74206D756C7469706C69636174696F6E206661696C65642100 PUSH1 0x44 DUP3 ADD MSTORE PUSH1 0x64 ADD PUSH2 0x2CF JUMP JUMPDEST POP POP POP PUSH2 0x140 DUP14 ADD MLOAD SWAP3 POP DUP3 DUP5 DUP9 DUP3 MULMOD SWAP4 POP DUP5 DUP11 DUP6 MULMOD SWAP4 POP DUP5 DUP10 DUP9 MULMOD DUP6 DUP2 DUP7 ADDMOD PUSH1 0xC0 DUP16 ADD MLOAD SWAP1 SWAP6 POP SWAP1 POP PUSH2 0x23DF DUP2 PUSH2 0x2CD9 JUMP JUMPDEST PUSH1 0x0 PUSH1 0x40 MLOAD DUP3 MLOAD DUP2 MSTORE PUSH1 0x20 DUP4 ADD MLOAD PUSH1 0x20 DUP3 ADD MSTORE DUP7 PUSH1 0x40 DUP3 ADD MSTORE PUSH1 0x40 DUP1 DUP8 ADD PUSH1 0x60 DUP4 PUSH1 0x7 GAS STATICCALL SWAP2 POP POP PUSH1 0x40 DUP6 PUSH1 0x80 DUP8 PUSH1 0x6 GAS STATICCALL AND DUP1 PUSH2 0x245F JUMPI PUSH1 0x40 MLOAD PUSH3 0x461BCD PUSH1 0xE5 SHL DUP2 MSTORE PUSH1 0x20 PUSH1 0x4 DUP3 ADD MSTORE PUSH1 0x1F PUSH1 0x24 DUP3 ADD MSTORE PUSH32 0x473120706F696E74206D756C7469706C69636174696F6E206661696C65642100 PUSH1 0x44 DUP3 ADD MSTORE PUSH1 0x64 ADD PUSH2 0x2CF JUMP JUMPDEST POP POP POP PUSH2 0x160 DUP14 ADD MLOAD SWAP3 POP DUP3 DUP5 DUP9 DUP3 MULMOD SWAP4 POP DUP5 DUP11 DUP6 MULMOD PUSH2 0x2C0 DUP16 ADD MLOAD SWAP1 SWAP5 POP PUSH1 0x0 SWAP2 POP DUP6 DUP2 DUP5 MULMOD SWAP2 POP POP PUSH1 0x0 DUP15 PUSH2 0x140 ADD MLOAD SWAP1 POP DUP6 DUP8 DUP10 MULMOD SWAP8 POP DUP6 DUP2 DUP4 MULMOD SWAP2 POP DUP6 DUP9 DUP4 MULMOD SWAP2 POP DUP6 DUP3 DUP4 ADDMOD SWAP2 POP DUP6 DUP11 DUP4 MULMOD SWAP2 POP DUP6 DUP3 DUP7 ADDMOD SWAP5 POP POP POP PUSH1 0x0 DUP14 PUSH2 0x280 ADD MLOAD SWAP1 POP PUSH1 0x0 DUP15 PUSH2 0x120 ADD MLOAD SWAP1 POP DUP6 DUP8 DUP10 MULMOD SWAP8 POP DUP6 DUP2 DUP8 SUB DUP4 ADDMOD SWAP2 POP DUP6 DUP4 DUP4 MULMOD SWAP2 POP POP PUSH1 0x0 DUP15 PUSH2 0x2C0 ADD MLOAD SWAP1 POP DUP6 DUP2 DUP4 MULMOD SWAP2 POP DUP6 DUP9 DUP4 MULMOD SWAP2 POP DUP6 DUP11 DUP4 MULMOD SWAP2 POP DUP6 DUP3 DUP7 ADDMOD SWAP5 POP POP POP PUSH1 0x0 DUP13 PUSH1 0xE0 ADD MLOAD SWAP1 POP PUSH2 0x2518 DUP2 PUSH2 0x2CD9 JUMP JUMPDEST PUSH1 0x0 PUSH1 0x40 MLOAD DUP3 MLOAD DUP2 MSTORE PUSH1 0x20 DUP4 ADD MLOAD PUSH1 0x20 DUP3 ADD MSTORE DUP6 PUSH1 0x40 DUP3 ADD MSTORE PUSH1 0x40 DUP1 DUP7 ADD PUSH1 0x60 DUP4 PUSH1 0x7 GAS STATICCALL SWAP2 POP POP PUSH1 0x40 DUP5 PUSH1 0x80 DUP7 PUSH1 0x6 GAS STATICCALL AND DUP1 PUSH2 0x2598 JUMPI PUSH1 0x40 MLOAD PUSH3 0x461BCD PUSH1 0xE5 SHL DUP2 MSTORE PUSH1 0x20 PUSH1 0x4 DUP3 ADD MSTORE PUSH1 0x1F PUSH1 0x24 DUP3 ADD MSTORE PUSH32 0x473120706F696E74206D756C7469706C69636174696F6E206661696C65642100 PUSH1 0x44 DUP3 ADD MSTORE PUSH1 0x64 ADD PUSH2 0x2CF JUMP JUMPDEST POP POP POP PUSH2 0x160 DUP13 ADD MLOAD PUSH2 0x180 DUP14 ADD MLOAD PUSH2 0x240 DUP15 ADD MLOAD SWAP1 SWAP4 POP DUP4 SWAP1 DUP6 DUP10 DUP4 MULMOD SWAP5 POP DUP6 DUP12 DUP7 MULMOD SWAP5 POP DUP6 DUP7 DUP9 DUP10 MULMOD DUP10 MULMOD SWAP8 POP DUP6 DUP11 DUP5 MULMOD DUP7 DUP3 DUP3 MULMOD SWAP1 POP DUP7 DUP10 DUP3 MULMOD SWAP1 POP DUP7 DUP2 DUP8 ADDMOD SWAP6 POP POP PUSH1 0x0 DUP15 PUSH2 0x100 ADD MLOAD SWAP1 POP PUSH2 0x25F1 DUP2 PUSH2 0x2CD9 JUMP JUMPDEST PUSH1 0x0 PUSH1 0x40 MLOAD DUP3 MLOAD DUP2 MSTORE PUSH1 0x20 DUP4 ADD MLOAD PUSH1 0x20 DUP3 ADD MSTORE DUP8 PUSH1 0x40 DUP3 ADD MSTORE PUSH1 0x40 DUP1 DUP9 ADD PUSH1 0x60 DUP4 PUSH1 0x7 GAS STATICCALL SWAP2 POP POP PUSH1 0x40 DUP7 PUSH1 0x80 DUP9 PUSH1 0x6 GAS STATICCALL AND DUP1 PUSH2 0x2671 JUMPI PUSH1 0x40 MLOAD PUSH3 0x461BCD PUSH1 0xE5 SHL DUP2 MSTORE PUSH1 0x20 PUSH1 0x4 DUP3 ADD MSTORE PUSH1 0x1F PUSH1 0x24 DUP3 ADD MSTORE PUSH32 0x473120706F696E74206D756C7469706C69636174696F6E206661696C65642100 PUSH1 0x44 DUP3 ADD MSTORE PUSH1 0x64 ADD PUSH2 0x2CF JUMP JUMPDEST POP POP POP POP PUSH2 0x180 DUP14 ADD MLOAD PUSH2 0x240 DUP15 ADD MLOAD SWAP1 SWAP2 POP DUP2 DUP6 SUB DUP6 DUP4 DUP1 MULMOD SWAP5 POP DUP6 DUP2 DUP7 ADDMOD SWAP5 POP DUP6 DUP7 PUSH1 0x2 DUP9 SUB DUP6 ADDMOD DUP7 MULMOD SWAP5 POP DUP6 DUP10 DUP7 MULMOD SWAP5 POP DUP6 DUP8 DUP7 MULMOD SWAP5 POP DUP6 DUP12 DUP7 MULMOD SWAP5 POP DUP6 DUP2 PUSH1 0x1 ADDMOD SWAP1 POP DUP6 DUP11 DUP3 MULMOD SWAP1 POP DUP6 DUP3 DUP3 MULMOD SWAP1 POP DUP6 DUP9 DUP3 MULMOD SWAP1 POP DUP6 DUP2 DUP7 ADDMOD PUSH2 0x120 DUP16 ADD MLOAD SWAP1 SWAP6 POP SWAP1 POP PUSH2 0x26E2 DUP2 PUSH2 0x2CD9 JUMP JUMPDEST PUSH1 0x0 PUSH1 0x40 MLOAD DUP3 MLOAD DUP2 MSTORE PUSH1 0x20 DUP4 ADD MLOAD PUSH1 0x20 DUP3 ADD MSTORE DUP7 PUSH1 0x40 DUP3 ADD MSTORE PUSH1 0x40 DUP1 DUP8 ADD PUSH1 0x60 DUP4 PUSH1 0x7 GAS STATICCALL SWAP2 POP POP PUSH1 0x40 DUP6 PUSH1 0x80 DUP8 PUSH1 0x6 GAS STATICCALL AND DUP1 PUSH2 0x2762 JUMPI PUSH1 0x40 MLOAD PUSH3 0x461BCD PUSH1 0xE5 SHL DUP2 MSTORE PUSH1 0x20 PUSH1 0x4 DUP3 ADD MSTORE PUSH1 0x1F PUSH1 0x24 DUP3 ADD MSTORE PUSH32 0x473120706F696E74206D756C7469706C69636174696F6E206661696C65642100 PUSH1 0x44 DUP3 ADD MSTORE PUSH1 0x64 ADD PUSH2 0x2CF JUMP JUMPDEST POP POP POP POP PUSH2 0x120 DUP13 ADD MLOAD PUSH2 0x140 DUP14 ADD MLOAD DUP5 DUP2 DUP4 MULMOD SWAP4 POP DUP5 DUP9 DUP6 MULMOD SWAP4 POP DUP5 DUP11 DUP6 MULMOD SWAP4 POP POP POP PUSH1 0x0 DUP13 PUSH2 0x160 ADD MLOAD SWAP1 POP PUSH1 0x0 DUP14 PUSH2 0x240 ADD MLOAD SWAP1 POP DUP5 DUP7 DUP9 MULMOD SWAP7 POP DUP5 DUP10 DUP4 MULMOD DUP6 DUP3 DUP3 MULMOD SWAP1 POP DUP6 DUP9 DUP3 MULMOD SWAP1 POP DUP6 DUP2 DUP7 ADDMOD PUSH2 0x140 DUP16 ADD MLOAD SWAP1 SWAP6 POP SWAP1 POP PUSH2 0x27C8 DUP2 PUSH2 0x2CD9 JUMP JUMPDEST PUSH1 0x0 PUSH1 0x40 MLOAD DUP3 MLOAD DUP2 MSTORE PUSH1 0x20 DUP4 ADD MLOAD PUSH1 0x20 DUP3 ADD MSTORE DUP7 PUSH1 0x40 DUP3 ADD MSTORE PUSH1 0x40 DUP1 DUP8 ADD PUSH1 0x60 DUP4 PUSH1 0x7 GAS STATICCALL SWAP2 POP POP PUSH1 0x40 DUP6 PUSH1 0x80 DUP8 PUSH1 0x6 GAS STATICCALL AND DUP1 PUSH2 0x2848 JUMPI PUSH1 0x40 MLOAD PUSH3 0x461BCD PUSH1 0xE5 SHL DUP2 MSTORE PUSH1 0x20 PUSH1 0x4 DUP3 ADD MSTORE PUSH1 0x1F PUSH1 0x24 DUP3 ADD MSTORE PUSH32 0x473120706F696E74206D756C7469706C69636174696F6E206661696C65642100 PUSH1 0x44 DUP3 ADD MSTORE PUSH1 0x64 ADD PUSH2 0x2CF JUMP JUMPDEST POP POP POP POP PUSH2 0x2869 PUSH1 0x40 MLOAD DUP1 PUSH1 0x40 ADD PUSH1 0x40 MSTORE DUP1 PUSH1 0x0 DUP2 MSTORE PUSH1 0x20 ADD PUSH1 0x0 DUP2 MSTORE POP SWAP1 JUMP JUMPDEST PUSH2 0x1E0 DUP12 ADD MLOAD DUP8 SWAP4 POP DUP5 DUP11 DUP6 MULMOD SWAP4 POP DUP5 DUP2 DUP6 ADDMOD SWAP4 POP DUP5 DUP7 DUP9 MULMOD PUSH2 0x160 DUP15 ADD MLOAD SWAP1 SWAP9 POP PUSH2 0x2894 DUP2 PUSH2 0x2CD9 JUMP JUMPDEST PUSH1 0x0 PUSH1 0x40 MLOAD DUP3 MLOAD DUP2 MSTORE PUSH1 0x20 DUP4 ADD MLOAD PUSH1 0x20 DUP3 ADD MSTORE DUP7 PUSH1 0x40 DUP3 ADD MSTORE PUSH1 0x40 DUP1 DUP8 ADD PUSH1 0x60 DUP4 PUSH1 0x7 GAS STATICCALL SWAP2 POP POP PUSH1 0x40 DUP5 PUSH1 0x80 DUP8 PUSH1 0x6 GAS STATICCALL AND DUP1 PUSH2 0x2914 JUMPI PUSH1 0x40 MLOAD PUSH3 0x461BCD PUSH1 0xE5 SHL DUP2 MSTORE PUSH1 0x20 PUSH1 0x4 DUP3 ADD MSTORE PUSH1 0x1F PUSH1 0x24 DUP3 ADD MSTORE PUSH32 0x473120706F696E74206D756C7469706C69636174696F6E206661696C65642100 PUSH1 0x44 DUP3 ADD MSTORE PUSH1 0x64 ADD PUSH2 0x2CF JUMP JUMPDEST POP POP POP SWAP6 SWAP1 SWAP10 MSTORE POP SWAP3 SWAP10 SWAP9 POP POP POP POP POP POP POP POP POP JUMP JUMPDEST PUSH2 0x120 DUP3 ADD MLOAD PUSH2 0x140 DUP4 ADD MLOAD PUSH2 0x160 DUP5 ADD MLOAD PUSH2 0x180 DUP6 ADD MLOAD PUSH2 0x2E0 DUP7 ADD MLOAD PUSH1 0x20 DUP7 ADD MLOAD DUP7 MLOAD PUSH1 0x0 SWAP7 SWAP6 SWAP5 SWAP4 SWAP3 SWAP2 SWAP1 DUP8 PUSH32 0x30644E72E131A029B85045B68181585D2833E84879B9709143E1F593F0000001 DUP1 DUP1 PUSH1 0x4 DUP9 MULMOD DUP3 SUB DUP9 ADDMOD DUP2 DUP3 PUSH1 0x4 DUP11 MULMOD DUP4 SUB DUP11 ADDMOD DUP3 DUP4 PUSH1 0x4 DUP13 MULMOD DUP5 SUB DUP13 ADDMOD DUP4 DUP5 PUSH1 0x4 DUP15 MULMOD DUP6 SUB DUP10 ADDMOD DUP5 DUP5 DUP6 MULMOD DUP6 DUP6 DUP8 SUB DUP3 ADDMOD SWAP1 POP DUP6 PUSH1 0x2 DUP8 SUB DUP7 ADDMOD DUP7 DUP2 DUP4 MULMOD SWAP2 POP DUP7 PUSH1 0x3 DUP9 SUB DUP8 ADDMOD SWAP1 POP DUP7 DUP2 DUP4 MULMOD SWAP2 POP DUP7 DUP10 DUP4 MULMOD SWAP2 POP DUP2 SWAP8 POP DUP7 DUP11 DUP11 MULMOD SWAP9 POP DUP7 DUP6 DUP7 MULMOD SWAP2 POP DUP7 DUP6 DUP9 SUB DUP4 ADDMOD SWAP2 POP DUP7 PUSH1 0x2 DUP9 SUB DUP7 ADDMOD SWAP1 POP DUP7 DUP2 DUP4 MULMOD SWAP2 POP DUP7 PUSH1 0x3 DUP9 SUB DUP7 ADDMOD SWAP1 POP DUP7 DUP2 DUP4 MULMOD SWAP2 POP DUP7 DUP10 DUP4 MULMOD SWAP2 POP DUP7 DUP3 DUP10 ADDMOD SWAP8 POP DUP7 DUP11 DUP11 MULMOD SWAP9 POP DUP7 DUP5 DUP6 MULMOD SWAP2 POP DUP7 DUP5 DUP9 SUB DUP4 ADDMOD SWAP2 POP DUP7 PUSH1 0x2 DUP9 SUB DUP6 ADDMOD SWAP1 POP DUP7 DUP2 DUP4 MULMOD SWAP2 POP DUP7 PUSH1 0x3 DUP9 SUB DUP6 ADDMOD SWAP1 POP DUP7 DUP2 DUP4 MULMOD SWAP2 POP DUP7 DUP10 DUP4 MULMOD SWAP2 POP DUP7 DUP3 DUP10 ADDMOD SWAP8 POP DUP7 DUP11 DUP11 MULMOD SWAP9 POP DUP7 DUP4 DUP5 MULMOD SWAP2 POP DUP7 DUP4 DUP9 SUB DUP4 ADDMOD SWAP2 POP DUP7 PUSH1 0x2 DUP9 SUB DUP5 ADDMOD SWAP1 POP DUP7 DUP2 DUP4 MULMOD SWAP2 POP DUP7 PUSH1 0x3 DUP9 SUB DUP5 ADDMOD SWAP1 POP DUP7 DUP2 DUP4 MULMOD SWAP2 POP POP DUP6 DUP9 DUP3 MULMOD SWAP1 POP DUP6 DUP2 DUP9 ADDMOD SWAP7 POP POP POP POP POP POP DUP1 DUP5 DUP5 MULMOD SWAP1 SWAP11 MSTORE SWAP11 SWAP10 POP POP POP POP POP POP POP POP POP POP JUMP JUMPDEST PUSH2 0x280 DUP3 ADD MLOAD PUSH2 0x120 DUP4 ADD MLOAD PUSH1 0x0 SWAP2 DUP3 SWAP2 PUSH32 0x30644E72E131A029B85045B68181585D2833E84879B9709143E1F593F0000001 SWAP2 DUP4 SWAP2 DUP3 SWAP2 DUP3 SWAP2 DUP3 SWAP2 DUP3 SWAP2 DUP3 SWAP2 SWAP1 DUP9 DUP1 PUSH1 0x4 DUP4 MULMOD DUP11 SUB DUP4 ADDMOD PUSH2 0x2A0 DUP15 ADD MLOAD PUSH2 0x140 DUP16 ADD MLOAD SWAP2 SWAP8 POP SWAP3 POP SWAP1 POP DUP9 DUP1 PUSH1 0x4 DUP4 MULMOD DUP11 SUB DUP4 ADDMOD SWAP5 POP DUP9 DUP6 DUP8 ADDMOD SWAP8 POP DUP9 DUP7 DUP8 MULMOD SWAP4 POP DUP9 DUP6 DUP7 MULMOD SWAP3 POP DUP9 DUP4 DUP6 ADDMOD SWAP7 POP DUP9 DUP9 DUP10 MULMOD SWAP10 POP DUP9 DUP8 DUP11 SUB DUP12 ADDMOD PUSH1 0x20 DUP14 ADD MLOAD PUSH2 0x160 DUP16 ADD MLOAD SWAP2 SWAP12 POP PUSH1 0x0 SWAP4 POP SWAP2 POP DUP10 PUSH1 0x2 DUP3 MULMOD SWAP3 POP DUP10 DUP4 DUP12 SUB DUP13 ADDMOD SWAP11 POP DUP10 DUP3 DUP13 MULMOD SWAP11 POP POP DUP9 DUP3 DUP4 ADDMOD SWAP2 POP DUP9 DUP7 DUP11 SUB DUP6 ADDMOD SWAP4 POP DUP9 PUSH1 0x4 DUP8 MULMOD SWAP6 POP DUP9 DUP7 DUP11 SUB DUP6 ADDMOD SWAP6 POP DUP9 PUSH1 0x6 DUP8 ADDMOD SWAP6 POP DUP9 DUP5 DUP8 MULMOD SWAP6 POP DUP9 DUP7 DUP12 ADDMOD SWAP10 POP DUP9 DUP2 DUP12 MULMOD SWAP10 POP DUP9 DUP6 DUP11 SUB DUP5 ADDMOD SWAP3 POP DUP9 PUSH1 0x4 DUP7 MULMOD SWAP5 POP DUP9 DUP6 DUP11 SUB DUP5 ADDMOD SWAP5 POP DUP9 PUSH1 0x6 DUP7 ADDMOD SWAP5 POP DUP9 DUP4 DUP7 MULMOD SWAP5 POP DUP9 DUP6 DUP12 ADDMOD SWAP10 POP DUP9 DUP2 DUP12 MULMOD SWAP10 POP DUP9 PUSH1 0x3 DUP10 MULMOD SWAP6 POP DUP9 PUSH1 0x3 DUP8 MULMOD SWAP5 POP DUP9 DUP6 DUP7 ADDMOD SWAP8 POP DUP9 PUSH1 0x4 DUP10 MULMOD SWAP4 POP DUP9 DUP5 DUP7 ADDMOD SWAP5 POP DUP9 PUSH1 0x3 DUP9 MULMOD SWAP4 POP DUP9 PUSH1 0x6 DUP6 MULMOD SWAP7 POP DUP9 DUP9 DUP11 SUB DUP4 ADDMOD SWAP8 POP DUP9 PUSH1 0x51 DUP10 ADDMOD SWAP8 POP DUP9 DUP6 DUP11 SUB DUP9 ADDMOD SWAP5 POP DUP9 PUSH1 0x53 DUP7 ADDMOD PUSH2 0x160 DUP15 ADD MLOAD SWAP1 SWAP6 POP DUP10 DUP2 DUP11 MULMOD SWAP9 POP DUP10 DUP7 DUP11 ADDMOD SWAP9 POP DUP10 DUP2 DUP11 MULMOD PUSH2 0x180 DUP16 ADD MLOAD SWAP1 SWAP10 POP SWAP1 POP DUP10 PUSH1 0x4 DUP3 MULMOD PUSH2 0x2E0 DUP16 ADD MLOAD SWAP1 SWAP6 POP SWAP1 POP DUP10 DUP6 DUP2 SUB DUP3 ADDMOD PUSH2 0x240 DUP16 ADD MLOAD SWAP1 SWAP6 POP SWAP1 POP DUP10 DUP6 DUP1 ADDMOD SWAP4 POP DUP10 DUP5 DUP7 ADDMOD SWAP5 POP DUP10 DUP6 DUP7 ADDMOD SWAP4 POP DUP10 DUP6 DUP6 ADDMOD SWAP4 POP DUP10 DUP8 DUP12 SUB DUP6 ADDMOD SWAP4 POP DUP10 DUP2 DUP6 MULMOD SWAP4 POP DUP10 DUP8 DUP7 ADDMOD SWAP5 POP DUP10 DUP10 DUP11 ADDMOD SWAP9 POP DUP10 DUP10 DUP12 SUB DUP7 ADDMOD SWAP5 POP DUP10 DUP5 DUP7 ADDMOD SWAP5 POP DUP10 DUP6 DUP13 ADDMOD DUP14 MLOAD SWAP1 SWAP12 POP SWAP1 POP DUP10 DUP2 DUP13 MULMOD DUP14 MLOAD PUSH1 0x20 DUP16 ADD MLOAD SWAP2 SWAP13 POP SWAP10 POP SWAP8 POP DUP10 SWAP7 POP DUP8 SWAP6 POP DUP6 SWAP5 POP POP POP POP POP MULMOD SWAP1 POP DUP3 DUP2 DUP3 MULMOD SWAP1 POP DUP3 DUP2 DUP4 MULMOD SWAP1 SWAP6 MSTORE POP SWAP1 SWAP5 SWAP4 POP POP POP POP JUMP JUMPDEST DUP1 MLOAD PUSH1 0x20 DUP3 ADD MLOAD PUSH1 0x0 SWAP2 PUSH32 0x30644E72E131A029B85045B68181585D97816A916871CA8D3C208C16D87CFD47 SWAP2 DUP3 PUSH1 0x3 DUP2 DUP1 DUP6 DUP1 MULMOD DUP6 MULMOD ADDMOD DUP4 DUP3 DUP4 MULMOD EQ DUP2 ISZERO DUP4 ISZERO OR NOT DUP5 DUP4 LT DUP6 DUP6 LT AND AND AND SWAP4 POP POP POP DUP2 PUSH2 0x2D9B JUMPI PUSH1 0x40 MLOAD PUSH3 0x461BCD PUSH1 0xE5 SHL DUP2 MSTORE PUSH1 0x20 PUSH1 0x4 DUP3 ADD MSTORE PUSH1 0x2D PUSH1 0x24 DUP3 ADD MSTORE PUSH32 0x426E3235343A20473120706F696E74206E6F74206F6E2063757276652C206F72 PUSH1 0x44 DUP3 ADD MSTORE PUSH32 0x206973206D616C666F726D656400000000000000000000000000000000000000 PUSH1 0x64 DUP3 ADD MSTORE PUSH1 0x84 ADD PUSH2 0x2CF JUMP JUMPDEST POP POP POP JUMP JUMPDEST PUSH2 0x2DCB PUSH1 0x40 MLOAD DUP1 PUSH1 0x80 ADD PUSH1 0x40 MSTORE DUP1 PUSH1 0x0 DUP2 MSTORE PUSH1 0x20 ADD PUSH1 0x0 DUP2 MSTORE PUSH1 0x20 ADD PUSH1 0x0 DUP2 MSTORE PUSH1 0x20 ADD PUSH1 0x0 DUP2 MSTORE POP SWAP1 JUMP JUMPDEST PUSH1 0x40 MLOAD DUP1 PUSH1 0x80 ADD PUSH1 0x40 MSTORE DUP1 PUSH32 0x198E9393920D483A7260BFB731FB5D25F1AA493335A9E71297E485B7AEF312C2 DUP2 MSTORE PUSH1 0x20 ADD PUSH32 0x1800DEEF121F1E76426A00665E5C4479674322D4F75EDADD46DEBD5CD992F6ED DUP2 MSTORE PUSH1 0x20 ADD PUSH32 0x90689D0585FF075EC9E99AD690C3395BC4B313370B38EF355ACDADCD122975B DUP2 MSTORE PUSH1 0x20 ADD PUSH32 0x12C85EA5DB8C6DEB4AAB71808DCB408FE3D1E7690C43D37B4CE6CC0166FA7DAA DUP2 MSTORE POP SWAP1 POP SWAP1 JUMP JUMPDEST PUSH1 0x0 PUSH2 0x2E7C DUP6 PUSH2 0x2CD9 JUMP JUMPDEST PUSH2 0x2E85 DUP4 PUSH2 0x2CD9 JUMP JUMPDEST PUSH1 0x0 DUP1 PUSH1 0x40 MLOAD DUP8 MLOAD DUP2 MSTORE PUSH1 0x20 DUP9 ADD MLOAD PUSH1 0x20 DUP3 ADD MSTORE DUP7 MLOAD PUSH1 0x40 DUP3 ADD MSTORE PUSH1 0x20 DUP8 ADD MLOAD PUSH1 0x60 DUP3 ADD MSTORE PUSH1 0x40 DUP8 ADD MLOAD PUSH1 0x80 DUP3 ADD MSTORE PUSH1 0x60 DUP8 ADD MLOAD PUSH1 0xA0 DUP3 ADD MSTORE DUP6 MLOAD PUSH1 0xC0 DUP3 ADD MSTORE PUSH1 0x20 DUP7 ADD MLOAD PUSH1 0xE0 DUP3 ADD MSTORE DUP5 MLOAD PUSH2 0x100 DUP3 ADD MSTORE PUSH1 0x20 DUP6 ADD MLOAD PUSH2 0x120 DUP3 ADD MSTORE PUSH1 0x40 DUP6 ADD MLOAD PUSH2 0x140 DUP3 ADD MSTORE PUSH1 0x60 DUP6 ADD MLOAD PUSH2 0x160 DUP3 ADD MSTORE PUSH1 0x20 PUSH1 0x0 PUSH2 0x180 DUP4 PUSH1 0x8 GAS STATICCALL SWAP3 POP POP PUSH1 0x0 MLOAD SWAP1 POP DUP2 PUSH2 0x2F59 JUMPI PUSH1 0x40 MLOAD PUSH3 0x461BCD PUSH1 0xE5 SHL DUP2 MSTORE PUSH1 0x20 PUSH1 0x4 DUP3 ADD MSTORE PUSH1 0x15 PUSH1 0x24 DUP3 ADD MSTORE PUSH32 0x50616972696E6720636865636B206661696C6564210000000000000000000000 PUSH1 0x44 DUP3 ADD MSTORE PUSH1 0x64 ADD PUSH2 0x2CF JUMP JUMPDEST ISZERO ISZERO SWAP7 SWAP6 POP POP POP POP POP POP JUMP JUMPDEST PUSH1 0x0 PUSH1 0x1 DUP5 DUP2 DUP6 DUP2 ADD JUMPDEST DUP1 DUP3 LT ISZERO PUSH2 0x2F95 JUMPI DUP2 DUP8 AND ISZERO PUSH2 0x2F86 JUMPI DUP6 DUP4 DUP6 MULMOD SWAP4 POP JUMPDEST DUP6 DUP4 DUP5 MULMOD SWAP3 POP SWAP1 DUP1 ADD SWAP1 PUSH2 0x2F6F JUMP JUMPDEST POP SWAP2 SWAP7 SWAP6 POP POP POP POP POP POP JUMP JUMPDEST PUSH1 0x0 DUP1 PUSH1 0x0 DUP1 PUSH32 0x30644E72E131A029B85045B68181585D2833E84879B9709143E1F593F0000001 SWAP1 POP PUSH1 0x40 MLOAD PUSH1 0x20 DUP2 MSTORE PUSH1 0x20 DUP1 DUP3 ADD MSTORE PUSH1 0x20 PUSH1 0x40 DUP3 ADD MSTORE DUP6 PUSH1 0x60 DUP3 ADD MSTORE PUSH1 0x2 DUP3 SUB PUSH1 0x80 DUP3 ADD MSTORE DUP2 PUSH1 0xA0 DUP3 ADD MSTORE PUSH1 0x20 PUSH1 0x0 PUSH1 0xC0 DUP4 PUSH1 0x5 GAS STATICCALL SWAP3 POP POP PUSH1 0x0 MLOAD SWAP3 POP DUP2 PUSH2 0x3053 JUMPI PUSH1 0x40 MLOAD PUSH3 0x461BCD PUSH1 0xE5 SHL DUP2 MSTORE PUSH1 0x20 PUSH1 0x4 DUP3 ADD MSTORE PUSH1 0x1B PUSH1 0x24 DUP3 ADD MSTORE PUSH32 0x706F7720707265636F6D70696C652063616C6C206661696C6564210000000000 PUSH1 0x44 DUP3 ADD MSTORE PUSH1 0x64 ADD PUSH2 0x2CF JUMP JUMPDEST POP SWAP1 SWAP4 SWAP3 POP POP POP JUMP JUMPDEST PUSH1 0x20 DUP5 ADD MLOAD PUSH1 0x60 DUP6 ADD MLOAD PUSH2 0x260 DUP4 ADD MLOAD PUSH1 0x80 DUP8 ADD MLOAD PUSH2 0x120 DUP6 ADD MLOAD PUSH2 0x140 DUP7 ADD MLOAD PUSH2 0x160 DUP8 ADD MLOAD PUSH2 0x180 DUP9 ADD MLOAD PUSH2 0x1A0 DUP10 ADD MLOAD PUSH2 0x1C0 DUP11 ADD MLOAD PUSH2 0x1E0 DUP12 ADD MLOAD PUSH1 0x0 SWAP11 DUP12 SWAP11 SWAP1 SWAP10 SWAP1 SWAP9 PUSH32 0x30644E72E131A029B85045B68181585D2833E84879B9709143E1F593F0000001 SWAP9 SWAP2 SWAP8 SWAP1 SWAP7 SWAP2 SWAP6 SWAP1 SWAP5 SWAP2 SWAP4 SWAP1 SWAP3 DUP10 DUP4 DUP13 MULMOD DUP9 DUP9 ADD ADD DUP11 DUP4 DUP14 MULMOD DUP10 DUP9 ADD ADD DUP12 DUP4 DUP15 MULMOD DUP11 DUP9 ADD ADD DUP13 DUP14 DUP3 DUP5 MULMOD DUP5 MULMOD SWAP3 POP POP POP DUP11 DUP10 DUP7 ADD DUP3 MULMOD SWAP1 POP DUP11 DUP11 DUP3 MULMOD SWAP1 POP DUP11 DUP14 DUP3 MULMOD SWAP1 POP DUP1 DUP12 SUB SWAP14 POP POP POP POP POP POP POP POP POP POP PUSH1 0x0 DUP11 PUSH1 0x0 ADD MLOAD SWAP1 POP PUSH1 0x0 DUP11 SWAP1 POP PUSH1 0x0 DUP11 SWAP1 POP PUSH1 0x0 DUP15 SWAP1 POP DUP6 DUP9 DUP10 MULMOD DUP7 DUP2 DUP11 MULMOD DUP8 DUP2 DUP7 MULMOD DUP9 DUP4 DUP7 MULMOD SWAP3 POP DUP9 DUP5 DUP11 SUB DUP10 ADDMOD DUP10 DUP2 DUP6 MULMOD SWAP4 POP POP DUP9 DUP2 DUP11 SUB DUP14 ADDMOD SWAP12 POP POP DUP8 DUP3 DUP13 ADDMOD SWAP11 POP DUP8 DUP2 DUP8 MULMOD SWAP1 SWAP16 MSTORE POP SWAP8 SWAP15 SWAP14 POP POP POP POP POP POP POP POP POP POP POP POP POP POP JUMP JUMPDEST PUSH2 0x200 DUP2 ADD MLOAD PUSH2 0x160 DUP3 ADD MLOAD PUSH2 0x180 DUP4 ADD MLOAD DUP5 MLOAD PUSH1 0x20 DUP7 ADD MLOAD PUSH1 0x0 SWAP5 SWAP4 SWAP3 SWAP2 SWAP1 DUP6 PUSH32 0x30644E72E131A029B85045B68181585D2833E84879B9709143E1F593F0000001 DUP1 DUP8 DUP2 SUB DUP2 DUP10 DUP1 MULMOD ADDMOD SWAP2 POP DUP1 DUP7 DUP3 PUSH1 0x4 DUP9 MULMOD DUP4 SUB ADDMOD DUP2 PUSH1 0x2 DUP4 DUP4 DUP5 MULMOD MULMOD DUP3 PUSH1 0x9 DUP4 MULMOD DUP4 DUP5 PUSH1 0x7 DUP7 SUB DUP5 DUP8 SUB ADDMOD DUP3 ADDMOD SWAP1 POP DUP4 DUP2 DUP5 MULMOD SWAP3 POP POP POP DUP2 DUP6 DUP4 DUP4 DUP7 MULMOD MULMOD SWAP3 POP POP DUP1 DUP4 DUP6 MULMOD SWAP4 POP DUP1 DUP4 DUP6 MULMOD SWAP1 SWAP10 MSTORE SWAP9 SWAP8 POP POP POP POP POP POP POP POP JUMP JUMPDEST PUSH1 0x20 DUP3 ADD MLOAD DUP3 MLOAD PUSH2 0x180 DUP4 ADD MLOAD PUSH2 0x2E0 DUP5 ADD MLOAD PUSH2 0x2C0 DUP6 ADD MLOAD PUSH1 0x0 SWAP5 SWAP4 DUP6 SWAP4 SWAP1 SWAP3 PUSH32 0x30644E72E131A029B85045B68181585D2833E84879B9709143E1F593F0000001 SWAP3 DUP6 SWAP3 SWAP2 SWAP1 DUP3 DUP6 SUB DUP6 DUP1 PUSH1 0x4 DUP4 MULMOD DUP5 ADDMOD SWAP5 POP POP DUP5 DUP7 DUP7 PUSH1 0x3 DUP9 SUB DUP8 ADD DUP9 PUSH1 0x1 DUP11 SUB DUP10 ADD DUP11 PUSH1 0x3 DUP12 ADD PUSH1 0x1 DUP13 ADD MULMOD MULMOD MULMOD MULMOD SWAP7 POP DUP5 DUP9 DUP8 MULMOD SWAP6 POP DUP5 DUP6 DUP8 DUP4 MULMOD DUP7 SUB DUP9 ADDMOD SWAP7 POP DUP5 DUP9 DUP8 MULMOD PUSH2 0x220 DUP12 ADD MLOAD PUSH2 0x120 DUP13 ADD MLOAD PUSH2 0x280 DUP14 ADD MLOAD PUSH2 0x140 DUP15 ADD MLOAD PUSH2 0x2C0 DUP16 ADD MLOAD SWAP5 SWAP11 POP SWAP2 SWAP7 POP SWAP5 POP SWAP3 POP SWAP1 PUSH1 0x0 DUP1 DUP1 DUP10 DUP1 DUP6 DUP11 ADDMOD DUP9 ADDMOD SWAP3 POP DUP10 DUP9 DUP12 SUB DUP6 ADDMOD SWAP2 POP DUP10 DUP3 DUP4 MULMOD SWAP2 POP DUP10 DUP3 DUP5 MULMOD SWAP3 POP DUP10 DUP11 DUP6 DUP7 MULMOD DUP6 MULMOD SWAP2 POP DUP10 DUP7 DUP8 MULMOD SWAP1 POP DUP10 PUSH1 0x11 DUP12 SUB DUP12 DUP4 DUP6 ADDMOD ADDMOD DUP11 SUB SWAP2 POP DUP10 DUP6 DUP12 DUP9 DUP13 MULMOD MULMOD SWAP1 POP DUP10 DUP2 DUP3 ADDMOD SWAP1 POP DUP10 DUP12 DUP12 DUP13 DUP5 DUP7 ADDMOD DUP7 ADDMOD MULMOD SWAP3 POP DUP10 DUP4 DUP14 ADDMOD SWAP12 POP DUP10 DUP14 DUP13 MULMOD SWAP11 POP DUP15 PUSH2 0x120 ADD MLOAD SWAP8 POP DUP15 PUSH2 0x2A0 ADD MLOAD SWAP7 POP DUP15 PUSH2 0x140 ADD MLOAD SWAP6 POP DUP15 PUSH2 0x2C0 ADD MLOAD SWAP4 POP PUSH1 0x0 DUP16 PUSH2 0x280 ADD MLOAD SWAP1 POP DUP11 DUP12 DUP11 DUP14 SUB DUP8 ADDMOD DUP13 DUP10 DUP12 ADDMOD MULMOD SWAP4 POP DUP11 DUP2 DUP13 SUB DUP11 ADDMOD SWAP3 POP DUP11 DUP8 DUP13 DUP13 DUP10 MULMOD DUP14 SUB ADDMOD SWAP2 POP DUP11 DUP12 DUP14 DUP14 DUP6 DUP8 MULMOD DUP8 ADD MULMOD DUP15 ADDMOD SWAP13 POP DUP11 DUP15 DUP14 MULMOD SWAP12 POP DUP16 PUSH2 0x240 ADD MLOAD SWAP6 POP DUP16 PUSH2 0x180 ADD MLOAD SWAP8 POP DUP16 PUSH2 0x160 ADD MLOAD SWAP7 POP DUP11 PUSH1 0x1 DUP13 SUB DUP10 ADDMOD DUP12 DUP9 DUP14 SUB DUP3 ADDMOD SWAP4 POP DUP12 DUP13 DUP15 DUP7 MULMOD DUP3 MULMOD SWAP1 POP DUP12 DUP8 DUP3 MULMOD SWAP1 POP DUP12 DUP2 DUP16 ADDMOD SWAP14 POP POP DUP11 DUP15 DUP14 MULMOD SWAP12 POP DUP11 DUP12 DUP14 DUP10 MULMOD DUP13 DUP9 DUP13 MULMOD MULMOD DUP12 SUB DUP12 DUP2 DUP16 ADDMOD SWAP14 POP POP DUP11 DUP15 DUP14 MULMOD SWAP12 POP DUP16 PUSH2 0x140 ADD MLOAD SWAP9 POP DUP16 PUSH2 0x160 ADD MLOAD SWAP8 POP DUP16 PUSH2 0x180 ADD MLOAD SWAP7 POP DUP11 DUP7 DUP9 DUP14 SUB PUSH1 0x1 ADD MULMOD DUP12 DUP10 DUP12 MULMOD DUP13 SUB SWAP4 POP DUP12 DUP13 DUP9 DUP16 MULMOD DUP6 DUP4 ADD MULMOD SWAP1 POP DUP12 DUP2 DUP16 ADDMOD SWAP14 POP POP DUP11 DUP15 DUP14 MULMOD SWAP12 POP DUP16 PUSH2 0x220 ADD MLOAD SWAP6 POP DUP11 DUP7 DUP15 MULMOD SWAP13 POP POP POP POP POP POP POP POP POP POP POP POP DUP1 DUP7 PUSH1 0x0 ADD DUP2 DUP2 MSTORE POP POP DUP2 SWAP4 POP POP POP POP SWAP3 SWAP2 POP POP JUMP JUMPDEST PUSH1 0x40 MLOAD DUP1 PUSH2 0x320 ADD PUSH1 0x40 MSTORE DUP1 PUSH1 0x0 DUP2 MSTORE PUSH1 0x20 ADD PUSH1 0x0 DUP2 MSTORE PUSH1 0x20 ADD PUSH1 0x0 DUP2 MSTORE PUSH1 0x20 ADD PUSH1 0x0 DUP2 MSTORE PUSH1 0x20 ADD PUSH1 0x0 DUP2 MSTORE PUSH1 0x20 ADD PUSH2 0x34A3 PUSH1 0x40 MLOAD DUP1 PUSH1 0x40 ADD PUSH1 0x40 MSTORE DUP1 PUSH1 0x0 DUP2 MSTORE PUSH1 0x20 ADD PUSH1 0x0 DUP2 MSTORE POP SWAP1 JUMP JUMPDEST DUP2 MSTORE PUSH1 0x20 ADD PUSH2 0x34C5 PUSH1 0x40 MLOAD DUP1 PUSH1 0x40 ADD PUSH1 0x40 MSTORE DUP1 PUSH1 0x0 DUP2 MSTORE PUSH1 0x20 ADD PUSH1 0x0 DUP2 MSTORE POP SWAP1 JUMP JUMPDEST DUP2 MSTORE PUSH1 0x20 ADD PUSH2 0x34E7 PUSH1 0x40 MLOAD DUP1 PUSH1 0x40 ADD PUSH1 0x40 MSTORE DUP1 PUSH1 0x0 DUP2 MSTORE PUSH1 0x20 ADD PUSH1 0x0 DUP2 MSTORE POP SWAP1 JUMP JUMPDEST DUP2 MSTORE PUSH1 0x20 ADD PUSH2 0x3509 PUSH1 0x40 MLOAD DUP1 PUSH1 0x40 ADD PUSH1 0x40 MSTORE DUP1 PUSH1 0x0 DUP2 MSTORE PUSH1 0x20 ADD PUSH1 0x0 DUP2 MSTORE POP SWAP1 JUMP JUMPDEST DUP2 MSTORE PUSH1 0x20 ADD PUSH2 0x352B PUSH1 0x40 MLOAD DUP1 PUSH1 0x40 ADD PUSH1 0x40 MSTORE DUP1 PUSH1 0x0 DUP2 MSTORE PUSH1 0x20 ADD PUSH1 0x0 DUP2 MSTORE POP SWAP1 JUMP JUMPDEST DUP2 MSTORE PUSH1 0x20 ADD PUSH2 0x354D PUSH1 0x40 MLOAD DUP1 PUSH1 0x40 ADD PUSH1 0x40 MSTORE DUP1 PUSH1 0x0 DUP2 MSTORE PUSH1 0x20 ADD PUSH1 0x0 DUP2 MSTORE POP SWAP1 JUMP JUMPDEST DUP2 MSTORE PUSH1 0x20 ADD PUSH2 0x356F PUSH1 0x40 MLOAD DUP1 PUSH1 0x40 ADD PUSH1 0x40 MSTORE DUP1 PUSH1 0x0 DUP2 MSTORE PUSH1 0x20 ADD PUSH1 0x0 DUP2 MSTORE POP SWAP1 JUMP JUMPDEST DUP2 MSTORE PUSH1 0x20 ADD PUSH2 0x3591 PUSH1 0x40 MLOAD DUP1 PUSH1 0x40 ADD PUSH1 0x40 MSTORE DUP1 PUSH1 0x0 DUP2 MSTORE PUSH1 0x20 ADD PUSH1 0x0 DUP2 MSTORE POP SWAP1 JUMP JUMPDEST DUP2 MSTORE PUSH1 0x20 ADD PUSH2 0x35B3 PUSH1 0x40 MLOAD DUP1 PUSH1 0x40 ADD PUSH1 0x40 MSTORE DUP1 PUSH1 0x0 DUP2 MSTORE PUSH1 0x20 ADD PUSH1 0x0 DUP2 MSTORE POP SWAP1 JUMP JUMPDEST DUP2 MSTORE PUSH1 0x20 ADD PUSH2 0x35D5 PUSH1 0x40 MLOAD DUP1 PUSH1 0x40 ADD PUSH1 0x40 MSTORE DUP1 PUSH1 0x0 DUP2 MSTORE PUSH1 0x20 ADD PUSH1 0x0 DUP2 MSTORE POP SWAP1 JUMP JUMPDEST DUP2 MSTORE PUSH1 0x20 ADD PUSH2 0x35F7 PUSH1 0x40 MLOAD DUP1 PUSH1 0x40 ADD PUSH1 0x40 MSTORE DUP1 PUSH1 0x0 DUP2 MSTORE PUSH1 0x20 ADD PUSH1 0x0 DUP2 MSTORE POP SWAP1 JUMP JUMPDEST DUP2 MSTORE PUSH1 0x20 ADD PUSH2 0x3619 PUSH1 0x40 MLOAD DUP1 PUSH1 0x40 ADD PUSH1 0x40 MSTORE DUP1 PUSH1 0x0 DUP2 MSTORE PUSH1 0x20 ADD PUSH1 0x0 DUP2 MSTORE POP SWAP1 JUMP JUMPDEST DUP2 MSTORE PUSH1 0x20 ADD PUSH2 0x363B PUSH1 0x40 MLOAD DUP1 PUSH1 0x40 ADD PUSH1 0x40 MSTORE DUP1 PUSH1 0x0 DUP2 MSTORE PUSH1 0x20 ADD PUSH1 0x0 DUP2 MSTORE POP SWAP1 JUMP JUMPDEST DUP2 MSTORE PUSH1 0x20 ADD PUSH2 0x365D PUSH1 0x40 MLOAD DUP1 PUSH1 0x40 ADD PUSH1 0x40 MSTORE DUP1 PUSH1 0x0 DUP2 MSTORE PUSH1 0x20 ADD PUSH1 0x0 DUP2 MSTORE POP SWAP1 JUMP JUMPDEST DUP2 MSTORE PUSH1 0x20 ADD PUSH2 0x367F PUSH1 0x40 MLOAD DUP1 PUSH1 0x40 ADD PUSH1 0x40 MSTORE DUP1 PUSH1 0x0 DUP2 MSTORE PUSH1 0x20 ADD PUSH1 0x0 DUP2 MSTORE POP SWAP1 JUMP JUMPDEST DUP2 MSTORE PUSH1 0x20 ADD PUSH1 0x0 ISZERO ISZERO DUP2 MSTORE PUSH1 0x20 ADD PUSH1 0x0 DUP2 MSTORE PUSH1 0x20 ADD PUSH2 0x36BF PUSH1 0x40 MLOAD DUP1 PUSH1 0x80 ADD PUSH1 0x40 MSTORE DUP1 PUSH1 0x0 DUP2 MSTORE PUSH1 0x20 ADD PUSH1 0x0 DUP2 MSTORE PUSH1 0x20 ADD PUSH1 0x0 DUP2 MSTORE PUSH1 0x20 ADD PUSH1 0x0 DUP2 MSTORE POP SWAP1 JUMP JUMPDEST DUP2 MSTORE PUSH1 0x20 ADD PUSH1 0x0 DUP2 MSTORE PUSH1 0x20 ADD PUSH1 0x0 DUP2 MSTORE POP SWAP1 JUMP JUMPDEST PUSH1 0x40 DUP1 MLOAD PUSH2 0x3E0 DUP2 ADD SWAP1 SWAP2 MSTORE PUSH1 0x0 PUSH2 0x3A0 DUP3 ADD DUP2 DUP2 MSTORE PUSH2 0x3C0 DUP4 ADD SWAP2 SWAP1 SWAP2 MSTORE DUP2 SWAP1 DUP2 MSTORE PUSH1 0x20 ADD PUSH2 0x3716 PUSH1 0x40 MLOAD DUP1 PUSH1 0x40 ADD PUSH1 0x40 MSTORE DUP1 PUSH1 0x0 DUP2 MSTORE PUSH1 0x20 ADD PUSH1 0x0 DUP2 MSTORE POP SWAP1 JUMP JUMPDEST DUP2 MSTORE PUSH1 0x20 ADD PUSH2 0x3738 PUSH1 0x40 MLOAD DUP1 PUSH1 0x40 ADD PUSH1 0x40 MSTORE DUP1 PUSH1 0x0 DUP2 MSTORE PUSH1 0x20 ADD PUSH1 0x0 DUP2 MSTORE POP SWAP1 JUMP JUMPDEST DUP2 MSTORE PUSH1 0x20 ADD PUSH2 0x375A PUSH1 0x40 MLOAD DUP1 PUSH1 0x40 ADD PUSH1 0x40 MSTORE DUP1 PUSH1 0x0 DUP2 MSTORE PUSH1 0x20 ADD PUSH1 0x0 DUP2 MSTORE POP SWAP1 JUMP JUMPDEST DUP2 MSTORE PUSH1 0x20 ADD PUSH2 0x377C PUSH1 0x40 MLOAD DUP1 PUSH1 0x40 ADD PUSH1 0x40 MSTORE DUP1 PUSH1 0x0 DUP2 MSTORE PUSH1 0x20 ADD PUSH1 0x0 DUP2 MSTORE POP SWAP1 JUMP JUMPDEST DUP2 MSTORE PUSH1 0x20 ADD PUSH2 0x379E PUSH1 0x40 MLOAD DUP1 PUSH1 0x40 ADD PUSH1 0x40 MSTORE DUP1 PUSH1 0x0 DUP2 MSTORE PUSH1 0x20 ADD PUSH1 0x0 DUP2 MSTORE POP SWAP1 JUMP JUMPDEST DUP2 MSTORE PUSH1 0x20 ADD PUSH2 0x37C0 PUSH1 0x40 MLOAD DUP1 PUSH1 0x40 ADD PUSH1 0x40 MSTORE DUP1 PUSH1 0x0 DUP2 MSTORE PUSH1 0x20 ADD PUSH1 0x0 DUP2 MSTORE POP SWAP1 JUMP JUMPDEST DUP2 MSTORE PUSH1 0x20 ADD PUSH2 0x37E2 PUSH1 0x40 MLOAD DUP1 PUSH1 0x40 ADD PUSH1 0x40 MSTORE DUP1 PUSH1 0x0 DUP2 MSTORE PUSH1 0x20 ADD PUSH1 0x0 DUP2 MSTORE POP SWAP1 JUMP JUMPDEST DUP2 MSTORE PUSH1 0x20 ADD PUSH2 0x3804 PUSH1 0x40 MLOAD DUP1 PUSH1 0x40 ADD PUSH1 0x40 MSTORE DUP1 PUSH1 0x0 DUP2 MSTORE PUSH1 0x20 ADD PUSH1 0x0 DUP2 MSTORE POP SWAP1 JUMP JUMPDEST DUP2 MSTORE PUSH1 0x20 ADD PUSH1 0x0 DUP2 MSTORE PUSH1 0x20 ADD PUSH1 0x0 DUP2 MSTORE PUSH1 0x20 ADD PUSH1 0x0 DUP2 MSTORE PUSH1 0x20 ADD PUSH1 0x0 DUP2 MSTORE PUSH1 0x20 ADD PUSH1 0x0 DUP2 MSTORE PUSH1 0x20 ADD PUSH1 0x0 DUP2 MSTORE PUSH1 0x20 ADD PUSH1 0x0 DUP2 MSTORE PUSH1 0x20 ADD PUSH1 0x0 DUP2 MSTORE PUSH1 0x20 ADD PUSH1 0x0 DUP2 MSTORE PUSH1 0x20 ADD PUSH1 0x0 DUP2 MSTORE PUSH1 0x20 ADD PUSH1 0x0 DUP2 MSTORE PUSH1 0x20 ADD PUSH1 0x0 DUP2 MSTORE PUSH1 0x20 ADD PUSH1 0x0 DUP2 MSTORE PUSH1 0x20 ADD PUSH1 0x0 DUP2 MSTORE PUSH1 0x20 ADD PUSH1 0x0 DUP2 MSTORE PUSH1 0x20 ADD PUSH2 0x388F PUSH1 0x40 MLOAD DUP1 PUSH1 0x40 ADD PUSH1 0x40 MSTORE DUP1 PUSH1 0x0 DUP2 MSTORE PUSH1 0x20 ADD PUSH1 0x0 DUP2 MSTORE POP SWAP1 JUMP JUMPDEST DUP2 MSTORE PUSH1 0x20 ADD PUSH2 0x38B1 PUSH1 0x40 MLOAD DUP1 PUSH1 0x40 ADD PUSH1 0x40 MSTORE DUP1 PUSH1 0x0 DUP2 MSTORE PUSH1 0x20 ADD PUSH1 0x0 DUP2 MSTORE POP SWAP1 JUMP JUMPDEST DUP2 MSTORE PUSH1 0x20 ADD PUSH2 0x38D3 PUSH1 0x40 MLOAD DUP1 PUSH1 0x40 ADD PUSH1 0x40 MSTORE DUP1 PUSH1 0x0 DUP2 MSTORE PUSH1 0x20 ADD PUSH1 0x0 DUP2 MSTORE POP SWAP1 JUMP JUMPDEST DUP2 MSTORE PUSH1 0x20 ADD PUSH2 0x38F5 PUSH1 0x40 MLOAD DUP1 PUSH1 0x40 ADD PUSH1 0x40 MSTORE DUP1 PUSH1 0x0 DUP2 MSTORE PUSH1 0x20 ADD PUSH1 0x0 DUP2 MSTORE POP SWAP1 JUMP JUMPDEST DUP2 MSTORE PUSH1 0x20 ADD PUSH1 0x0 DUP2 MSTORE POP SWAP1 JUMP JUMPDEST PUSH1 0x0 DUP1 PUSH1 0x20 DUP4 DUP6 SUB SLT ISZERO PUSH2 0x3915 JUMPI PUSH1 0x0 DUP1 REVERT JUMPDEST DUP3 CALLDATALOAD PUSH8 0xFFFFFFFFFFFFFFFF DUP1 DUP3 GT ISZERO PUSH2 0x392D JUMPI PUSH1 0x0 DUP1 REVERT JUMPDEST DUP2 DUP6 ADD SWAP2 POP DUP6 PUSH1 0x1F DUP4 ADD SLT PUSH2 0x3941 JUMPI PUSH1 0x0 DUP1 REVERT JUMPDEST DUP2 CALLDATALOAD DUP2 DUP2 GT ISZERO PUSH2 0x3950 JUMPI PUSH1 0x0 DUP1 REVERT JUMPDEST DUP7 PUSH1 0x20 DUP3 DUP6 ADD ADD GT ISZERO PUSH2 0x3962 JUMPI PUSH1 0x0 DUP1 REVERT JUMPDEST PUSH1 0x20 SWAP3 SWAP1 SWAP3 ADD SWAP7 SWAP2 SWAP6 POP SWAP1 SWAP4 POP POP POP POP JUMP JUMPDEST PUSH32 0x4E487B7100000000000000000000000000000000000000000000000000000000 PUSH1 0x0 MSTORE PUSH1 0x11 PUSH1 0x4 MSTORE PUSH1 0x24 PUSH1 0x0 REVERT JUMPDEST DUP1 DUP3 MUL DUP2 ISZERO DUP3 DUP3 DIV DUP5 EQ OR PUSH2 0x1894 JUMPI PUSH2 0x1894 PUSH2 0x3974 JUMP JUMPDEST DUP2 DUP2 SUB DUP2 DUP2 GT ISZERO PUSH2 0x1894 JUMPI PUSH2 0x1894 PUSH2 0x3974 JUMP INVALID LOG2 PUSH5 0x6970667358 0x22 SLT KECCAK256 DUP15 0xA5 0xC2 PUSH10 0x43227969E6A70BEE028A SELFDESTRUCT MULMOD PUSH22 0x502FCC868EDDD5AC47896994154DFA64736F6C634300 ADDMOD SLT STOP CALLER "},"methodIdentifiers":{"verify(bytes)":"8e760afe"}}}}}